:020000040800F2
:10000000180C00209D01000863320008492B0008ED
:1000100061320008E50200086142000800000000AB
:10002000000000000000000000000000753800081B
:10003000B10C00080000000065320008193A000801
:10004000B7010008B7010008B7010008B7010008B0
:10005000B7010008B7010008B7010008B7010008A0
:10006000B7010008B7010008B7010008B701000890
:10007000010C0008B7010008B7010008B70100082B
:10008000B7010008B7010008B7010008B701000870
:10009000B7010008B7010008B7010008B701000860
:1000A000B7010008B7010008B7010008B701000850
:1000B000B7010008B93A0008B7010008B701000805
:1000C000B7010008B7010008B7010008B701000830
:1000D000B7010008B7010008B7010008B701000820
:1000E000B7010008B7010008B7010008B701000810
:1000F000B7010008B7010008B7010008B701000800
:10010000B7010008B7010008B7010008B7010008EF
:10011000B7010008B7010008B7010008B7010008DF
:10012000B7010008B7010008B7010008B7010008CF
:10013000B7010008B7010008B7010008B7010008BF
:10014000B7010008B7010008B7010008B7010008AF
:10015000B7010008B7010008B7010008B70100089F
:10016000B7010008B7010008B7010008B70100088F
:10017000B7010008B7010008B7010008000000003F
:10018000B7010008B7010008DFF80CD000F098F8BC
:1001900000480047F5440008180C00200648804736
:1001A00006480047FEE7FEE7FEE7FEE7FEE7FEE75C
:1001B000FEE7FEE7FEE7FEE79D3A0008890100083A
:1001C0002DE9F05F0546002092469B46884606468C
:1001D000814640241BE0284641464746224600F01F
:1001E0005EF853465A46C01A914110D3114618463C
:1001F000224600F045F82D1A67EB01084F462246CB
:100200000120002100F03CF817EB00094E41201EB0
:10021000A4F10104DFDC484631462A464346BDE8E6
:10022000F09FD2B201E000F8012B491EFBD27047CB
:100230000022F6E710B513460A4604461946FFF7B2
:10024000F0FF204610BD421C10F8011B0029FBD115
:10025000801A704730B50B46014600202022012449
:1002600009E021FA02F59D4205D303FA02F5491B84
:1002700004FA02F52844151EA2F10102F1DC30BD9A
:10028000202A04DB203A00FA02F100207047914056
:10029000C2F1200320FA03F3194390407047202A4B
:1002A00004DB203A21FA02F00021704721FA02F320
:1002B000D040C2F120029140084319467047000027
:1002C000064C074D06E0E06840F0010394E80700A3
:1002D00098471034AC42F6D3FFF75AFF285E000867
:1002E000485E0008FEE7000070B5164D0121284663
:1002F00001F084F9144C60B1607850B1052001F030
:1003000031F80121284601F079F9002819D00020A0
:1003100016E00121284601F071F9002811D10520CD
:1003200001F020F80121284601F068F9002808D1E1
:10033000A078012801D100F0C1FA00F007F80120EF
:10034000607070BD00100240200000202DE9F04FC9
:100350007B4E002499B0F078012874D0794F7A4D03
:10036000DFF8E881DFF8E8B1DFF8E8A102286FD014
:10037000032867D0042860D13C702C7088F80040B6
:100380008BF800405E46D1468AF8004002F0F4FF48
:100390000A21084603F02CF93A786FA1684603F069
:1003A00061FF01226F49684603F02CFA14210A20EC
:1003B00003F01EF92A786CA1684603F053FF01226E
:1003C0006849684603F01EFA1E210A2003F010F95E
:1003D00098F8002067A1684603F044FF01226149B4
:1003E000684603F00FFA28210A2003F001F9327859
:1003F00063A1684603F036FF01225A49684603F0BC
:1004000001FA32210A2003F0F3F838782978014400
:1004100098F80000084431780844C2B289F80020F6
:100420005AA1684603F01EFF01224E49684603F0B8
:10043000E9F903F0FBF94248C47019B0BDE8F08F48
:1004400001E005E075E002F097FF00F0A3FB74E027
:1004500002F092FF0A21084603F0CAF8B9463A783A
:100460003DA1684603F0FEFE01223E49684603F0C6
:10047000C9F914210A2003F0BBF82A783AA168468A
:1004800003F0F0FE01223749684603F0BBF91E2154
:100490000A2003F0ADF8474698F8002035A16846D9
:1004A00003F0E0FE01222F49684603F0ABF9282152
:1004B0000A2003F09DF8D8469BF8002030A168463A
:1004C00003F0D0FE01222749684603F09BF9322150
:1004D0000A2003F08DF899F800002978084439784B
:1004E000014498F800000844C2B28AF8002027A10D
:1004F000684603F0B7FE01221A49684603F082F904
:1005000003F094F902F0FAFC234D4FF40058AF14B5
:1005100006E04146284601F076F8C82000F022FFA8
:100520003946284601F06AF80028F2D003F008FEA8
:1005300003E002F021FF00F0C1F9F4707DE7000054
:100540002000002000000020010000200200002008
:1005500003000020040000205265643A202020207F
:100560002564000024000020477265656E3A202053
:1005700025640000426C75653A2020202564000047
:10058000507572706C653A2025640000546F746178
:100590006C3A202025640000000C024010B59C4CF1
:1005A0009AB0E078401CC0B2E070012806D0022862
:1005B0004BD003287ED004287DD022E102F0DCFE5F
:1005C00002210E2003F014F892A1684603F04AFEBF
:1005D00001229249684603F015F910210E2003F01C
:1005E00007F88FA1684603F03DFE01228B4968465B
:1005F00003F008F91C210E2002F0FAFF8BA16846D7
:1006000003F030FE01228549684603F0FBF82921FA
:100610000E2002F0EDFF89A1684603F023FE0122BF
:100620007E49684603F0EEF835210E2002F0E0FF27
:1006300086A1684603F016FE01227849684603F059
:10064000E1F8012304221321D6E002F095FE0221F5
:100650000E2002F0CDFF6FA1684603F003FE0122D9
:100660006E49684603F0CEF810210E2002F0C0FF5C
:100670006BA1684603F0F6FD01226849684603F065
:10068000C1F81C210E2002F0B3FF68A1684603F0F8
:10069000E9FD01226149684603F0B4F829210E20E2
:1006A00002F0A6FF65A1684603F0DCFD01225B496C
:1006B000684601E013E059E003F0A4F835210E206C
:1006C00002F096FF61A1684603F0CCFD0122534978
:1006D000684603F097F8012304221F218CE002F002
:1006E0004BFE02210E2002F083FF4AA1684603F070
:1006F000B9FD01224949684603F084F810210E2013
:1007000002F076FF46A1684603F0ACFD01224349A2
:10071000684603F077F81C210E2002F069FF43A120
:10072000684603F09FFD01223C49684603F06AF8E1
:1007300029210E2002F05CFF40A1684603F092FDE3
:1007400001223649684603F05DF835210E2002F09B
:100750004FFF3EA1684603F085FD01222F49684600
:1007600003F050F8012304222B2145E002F004FE9F
:1007700002210E2002F03CFF26A1684603F072FD24
:1007800001222649684603F03DF810210E2002F0B0
:100790002FFF23A1684603F065FD01221F4968462B
:1007A00003F030F81C210E2002F022FF1FA1684642
:1007B00003F058FD01221949684603F023F8292166
:1007C0000E2002F015FF1DA1684603F04BFD01222B
:1007D0001249684603F016F835210E2002F008FF92
:1007E0001AA1684603F03EFD01220C49684603F059
:1007F00009F8012304223821052002F0C5FD03F089
:1008000015F8E078052801D10020E0701AB010BD7D
:10081000200000204D656E753A0000002400002085
:10082000312E20536F72746572000000322E2053F7
:10083000656E6420746F207765620000332E20435C
:10084000616C6962726174696F6E0000342E2052AF
:100850006573657420636F756E74657200000000C7
:1008600070B5144D0221284600F0C8FE124C60B14C
:10087000207850B1322000F075FD0221284600F0AA
:10088000BDFE002814D0002011E00221284600F00F
:10089000B5FE00280CD1322000F064FD022128466C
:1008A00000F0ACFE002803D1FFF778FE0120607055
:1008B00070BD000000100240200000202DE9F04F24
:1008C000754F99B03878B0B374A1684603F0CAFC8C
:1008D0006846FFF7B8FC82B264236946764802F0A6
:1008E000D6F8DFF8D8A1764DDFF8D89100244FF480
:1008F00000784FF47A764FF4FA7B0122414648465D
:1009000000F088FE3C2002F0B5FC304600F02AFDE5
:1009100002F0B6FC304600F025FD02F0ADFF69693B
:100920004AF82410002C48D0012C5BD0022C63D054
:10093000032C76D08AE0FFE76349684603F092FC17
:100940006846FFF780FC82B2642369465A4802F089
:100950009EF80A21002002F04BFE01225B495CA0B8
:1009600002F050FF1421002002F042FE01225749FC
:100970005EA002F047FF1E21002002F039FE012296
:1009800052495FA002F03EFF2821002002F030FE15
:1009900001224E495FA002F035FF3221002002F013
:1009A00027FE0122494960A002F02CFF02F03EFF21
:1009B0000120387019B0BDE8F08F542002F054FCCB
:1009C00002F0DAFC02210E2002F012FE01223F4961
:1009D00058A002F017FF10210E2002F009FE59A1C5
:1009E0006A6912E0492002F03FFC1C210E2002F04F
:1009F000FFFD57A16A6908E03E2002F035FC29217D
:100A00000E2002F0F5FD6A6954A1684603F02AFC45
:100A100001222E49684602F0F5FE02F007FF15E0BC
:100A2000FFE7352002F020FC35210E2002F0E0FD2A
:100A30004DA168466A6903F015FC01222349684606
:100A400002F0E0FE02F0F2FE02F0B8FF5F2002F0DA
:100A500011FC584600F086FC00224146484600F052
:100A6000D9FD182002F006FC304600F07BFC641C27
:100A7000E4B2042CFFF441AF002038703DA1684679
:100A800003F0F0FB6846FFF7DEFB82B264236946A1
:100A9000094801F0FCFF8DE72200002053617669D0
:100AA0006E6720636F6C6F722073616D706C65731D
:100AB0002E2E2E0D0A00000074010020540200208A
:100AC0000000002000040240F85B00082400002021
:100AD0005075742062616C6C7320696E2074686953
:100AE00073206F726465723A000000006F72646573
:100AF000723A205265642C20477265656E2C200086
:100B0000426C756520616E6420507572706C652E44
:100B100000000000416E642070726573732062757E
:100B200074746F6E2000000061636570742E2E2E49
:100B30000000000043616C6962726174696E672E27
:100B40002E2E0000526564202020203D20256400C8
:100B5000477265656E20203D20256400426C7565F6
:100B60002020203D20256400507572706C65203D6A
:100B700020256400436F6C6F722073616D706C6927
:100B80006E672069732066696E69736865642E0DEF
:100B90000A0000002DE9F041184E00244FF40075C2
:100BA0004FF47A774FF4FA7801222946304600F064
:100BB00031FD3C2002F05EFB384600F0D3FB02F032
:100BC0005FFB384600F0CEFB02F056FE5F2002F0DD
:100BD00051FB404600F0C6FB00222946304600F09B
:100BE00019FD182002F046FB384600F0BBFB641CE0
:100BF000E4B20C2CD8D3BDE8F08100000004024020
:100C0000014800F03DBA0000F401002001681823FB
:100C1000CAB2103AB2FBF3F2054B6FF30901032A93
:100C20009B5CC36500D9091D8165084670470000BB
:100C3000D85B000810B5014600208B698A6A4FF026
:100C4000C07453B1B3F5005F15D072B1012A0CD056
:100C5000022A0AD0032A09D104E01AB1012A06D0D7
:100C6000022A03D1C96AC90100D5012010BDC96A91
:100C7000A142FAD010BD002AF7D0012AF2D0022AF0
:100C8000F3D0032AF3D010BD30B50468256825F4ED
:100C900080252560046863608368402B036803D067
:100CA00099600068C26030BD9A600068C16030BD64
:100CB0007047000010B56A496A4C9AB00A6802F1A0
:100CC0009603834216D3963A824213D8542002F0F8
:100CD000CBFA65A1684603F0C5FA6846FFF7B3FA98
:100CE00082B264236946624801F0D1FE2078401C3C
:100CF000207063E04A6802F19603834216D3963A65
:100D0000824213D8492002F0AFFA5AA1684603F094
:100D1000A9FA6846FFF797FA82B2642369465448F5
:100D200001F0B5FE6078401C607047E08A6802F10F
:100D30009603834216D3963A824213D83E2002F09D
:100D400093FA4EA1684603F08DFA6846FFF77BFAE6
:100D500082B264236946464801F099FEA078401C9F
:100D6000A0702BE0C96801F19602824216D3963931
:100D7000814213D8352002F077FA42A1684603F089
:100D800071FA6846FFF75FFA82B264236946384811
:100D900001F07DFEE078401CE0700FE0322002F0B0
:100DA00063FA3BA1684603F05DFA6846FFF74BFA29
:100DB00082B2642369462E4801F069FE0A21084682
:100DC00002F016FC227836A1684603F04BFA0122A5
:100DD0003649684602F016FD14210A2002F008FC8C
:100DE000627833A1684603F03DFA01222F49684634
:100DF00002F008FD1E210A2002F0FAFBA2782FA1C2
:100E0000684603F02FFA01222849684602F0FAFCEE
:100E100028210A2002F0ECFBE2782BA1684603F0BF
:100E200021FA01222149684602F0ECFC32210A2015
:100E300002F0DEFB207861780844A1780844E1786C
:100E40000844C2B2227123A1684603F00BFA0122C2
:100E50001649684602F0D6FC02F0E8FC1AB010BD54
:100E600054020020000000203D2052656400000074
:100E7000740100203D20477265656E003D20426C84
:100E8000756500003D20507572706C6500000000B3
:100E900020496E64657465726D696E6174650000E9
:100EA0005265643A202020202564000024000020A0
:100EB000477265656E3A202025640000426C7565B6
:100EC0003A20202025640000507572706C653A202D
:100ED00025640000546F74616C3A20202564000082
:100EE00070470000002229B101291AD002291BD025
:100EF0004FF440720E490B6823F440730B600B688B
:100F000013430B600A6822F0F8020A600A680223A1
:100F100003EBC00002430A60086840F480300860B8
:100F200070474FF48072E5E74FF40072E2E700008B
:100F3000103C0240064A136823F4407313601368A0
:100F40001360136843F001031360017070470000E1
:100F5000103C0240094910B50C6824F440740C6040
:100F60000C6844F440740C600C6844F001040C609C
:100F70000260BFF36F8F436010BD0000103C024061
:100F8000074A136823F440731360136843F48073B3
:100F90001360136843F00103136001807047000081
:100FA000103C0240074A136823F44073136013682F
:100FB00043F400731360136843F00103136001608E
:100FC00070470000103C024017490868C2061748E5
:100FD00005D5C26942F01002C26110220A600A6897
:100FE000920605D5C26942F00802C26120220A6059
:100FF0000A68520605D5C26942F00402C261402265
:101000000A600A68120605D5C26942F00202C2618E
:1010100080220A600A68920705D5C26942F0200260
:10102000C2610220086070470C3C0240F4070020B7
:1010300070B5114904460020C86100F0F1FA064677
:101040000E4D09E0601C07D024B100F0E9FA801BC6
:10105000A04201D9032070BD2868C003F2D42868DB
:10106000C00701D001202860286810F0F200F2D0FB
:10107000FFF7AAFF012070BDF40700200C3C0240DE
:101080002DE9F84304464FF00009CDF8009063487D
:101090004FF41651A56D0068B0FBF1F72E6894F877
:1010A0005C10082000FA01F131420FD021680A6873
:1010B00052070BD50A6822F004020A6094F85C100B
:1010C0008840A860606D40F00100606594F85C1095
:1010D0004FF0010808FA01F0304208D02168496950
:1010E000090604D5A860606D40F00200606594F8C0
:1010F0005C1004208840304208D0216809688907C4
:1011000004D5A860606D40F00400606594F85C1040
:1011100010208840304218D021680968090714D58A
:10112000A86020680168490304D50068000308D559
:10113000A16C07E00168C90503D4016821F008012A
:101140000160216C09B12046884794F85C1020208A
:101150008840304231D021680968C9062DD5A86081
:1011600094F8350005282068016806D0490347D562
:10117000006800031DD4616C1CE021F016010160C1
:101180002068416921F080014161206C08B9A06CA0
:1011900020B12068016821F00801016094F85C101A
:1011A0003F208840A86084F8349084F83580216D11
:1011B0001FE0E16B09B120468847606D00282BD005
:1011C000606DC00714D0052084F8350020680168E0
:1011D00021F0010101600098401C0090B84203D842
:1011E00020680068C007F6D184F8349084F8358010
:1011F000E16C002910D001B02046BDE8F04308475B
:101200000168C905D5D4016821F01001016084F896
:10121000349084F83580CCE7BDE8F883480000209E
:101220002DE9F041044600F0FBF906465CB10025CB
:1012300084F83450022084F835002068016821F0D9
:10124000010101600DE00120BDE8F08100F0E8F946
:10125000801B052805D920206065032084F835000F
:10126000F2E720680068C007F0D1226811682048C2
:101270000140D4E901031843D4E90336334318434A
:1012800063691843A3691843E3691843236A184341
:101290000843616A042903D1D4E90B1319430843B5
:1012A000106020684069666A20F0070130460E43EE
:1012B000012704280CD1A06A0643E06A40B1204609
:1012C000FFF7B8FC20B14020606584F83570BAE7BC
:1012D000206846612046FFF799FC94F85C203F2186
:1012E00091408160656584F835700020ACE70000AE
:1012F0003F8010F02DE9F0410446866D90F83400EF
:10130000002501280DD0012084F8340094F83570B0
:101310000020012F07D084F8340002252846BDE8BC
:10132000F0810220FBE7022784F8357060652046D3
:10133000FFF7AAFC94F85C103F208840B06020685A
:10134000016841F016010160206C20B1206801683D
:1013500041F0080101602068016841F0010101606D
:10136000DCE7000070B5044600F05AF90546601C41
:1013700002D004480078044400F052F9401BA04217
:10138000FAD370BD3C0000200348016841F00041E1
:101390000160002070470000103C02402DE9F0473A
:1013A0001B4E05461446307E1F468946012808D04C
:1013B000012030764CF250384046FFF739FE18B124
:1013C00014E00220BDE8F0879DB1012D16D0022D5A
:1013D00019D022463B464846FFF7BCFD4046FFF782
:1013E00027FE0C490A6822F001020A6000213176CA
:1013F000E8E7E1B24846FFF79DFDEFE7A1B24846B6
:10140000FFF7BEFDEAE721464846FFF7CBFDE5E7DB
:10141000F4070020103C0240074900200A68002A17
:1014200009DA054A054B0C3A1360054B136009684D
:10143000002900DA01207047103C02402301674573
:10144000AB89EFCD2DE9F84F00224FF001080325BD
:101450004FF00F0E0B6808FA02F42340A3426ED13E
:101460004E68012E05D0022E03D0112E01D0122E6F
:1014700012D186684FEA420C05FA0CF7BE43CF68DA
:1014800007FA0CF7374387604668A6430C79C4F324
:101490000014944034434460C668570005FA07FCC2
:1014A0008C6826EA0C06BC403443C4604C68022CAD
:1014B00001D0122C13D1D40800EB8404A346D4F835
:1014C000209054074FEAD46A0EFA0AF629EA060970
:1014D0000E6906FA0AF646EA0906CBF820600668A5
:1014E0000C7926EA0C0604F00304BC403443046083
:1014F0004C68E40065D5364C266846F48046266084
:10150000246822F0030604F480440094314C3444EF
:10151000A446D4F808489607370F0EFA07F6B443E6
:101520002D4EB04201D1002624E02C4EB04201D114
:1015300001261FE02A4EB04202D102261AE040E006
:10154000284EB04201D1032614E0274EB04201D10B
:1015500004260FE0254EB04201D105260AE0244EB4
:10156000B04201D1062605E0224EB04201D1072645
:1015700000E00826BE402643CCF808681E4E3468BA
:101580004F689C43FF0300D51C4334601A4C241D54
:1015900026684F689E43BF0300D51E432660164E43
:1015A000083634684F689C43FF0200D51C43346002
:1015B000114E0C3634684F689C43BF0200D51C4363
:1015C0003460521C102AFFF445AFBDE8F88F0000CC
:1015D0004438024000300140000002400004024054
:1015E00000080240000C02400010024000140240BB
:1015F00000180240001C0240003C01400069084005
:1016000000D001207047426931EA020200D109048A
:10161000816170470AB1816170470904FBE70000EE
:1016200001488068704700003C00002070B504004D
:1016300025D094F83D00002520B984F83C50204680
:1016400000F0F4FA242084F83D002068016821F0BD
:10165000010101602068016841F4004101602068D7
:10166000016821F40041016000F066FC4D4A6168A8
:10167000914201D84C4900E04C49884201D20120F6
:1016800070BD4B492368B0FBF1F15E6826F03F0660
:101690000E435E606368934206D94FF496735943D4
:1016A0004FF47A73B1FBF3F12368491C1E6A26F0EC
:1016B0003F06314319626168914210D84900401ECB
:1016C000B0FBF1F2521CC2F30B02042A01D2042037
:1016D00022E0B0FBF1F0401CC0F30B001CE0A2685C
:1016E000F2B301EBC10303EB0116431EB3FBF6F3A8
:1016F0005B1C43F480431B0549D092B301EBC1024C
:1017000002EB0111401EB0FBF1F0401CC0F30B00D6
:1017100040F4804040F400402168CA694CF6FF73F1
:101720009A431043C861D4E9071001432068026856
:1017300022F0C00211430160D4E903010143206893
:10174000826848F2FF339A4311438160D4E905016E
:1017500008432168CA6822F0FF021043C86001E014
:101760000EE016E02068016841F001010160256487
:10177000202084F83D00256384F83E50002070BD91
:1017800001EB4106431EB3FBF6F35B1CB3E70120FC
:10179000C2E701EB4101401EB0FBF1F0401CC0F379
:1017A0000B00B7E7A086010080841E0000093D0001
:1017B00040420F002DE9FF4F81B089460446FFF7F4
:1017C0002FFF054694F83D004FF0010820287DD1F9
:1017D0001923012250492046009501F0B7FA00284C
:1017E00074D194F83C00012870D0012084F83C00AA
:1017F00020680168C90703D1016841F00101016057
:101800002068016821F400610160242084F83D0013
:10181000002626644148E0624FF0011B2027206823
:10182000016841F48071016000950022594620460C
:10183000049B01F08BFA50B120680068C00502D506
:101840004FF400702064032005B0BDE8F08F2168DC
:1018500009F0FE000861FFF7E3FE216805464869CC
:101860004969C0F34000C1F380214FF0A00A0FE0A6
:10187000FFF7D6FE411B0498814200D808B984F8CE
:101880003DA0216848694969C0F34000C1F3802147
:1018900094F83D20A02A02D008B90029E8D084F8A5
:1018A0003D7020684169C943890716D4016841F435
:1018B000007101602068416980691923012216497D
:1018C0002046009501F042FAB8B900E021E084F822
:1018D0003D7084F83C600020B6E7016841F4007177
:1018E000016021686FF480604861192301220A4970
:1018F0002046009501F02AFA08B10120A4E70398D8
:1019000008F1010880458AD384F83D7084F83C6072
:10191000F3E7022098E70000020010000000FFFF3C
:101920002DE9F84F1F4690468A460446DDF8289078
:10193000FFF776FE054694F83D00202875D119235F
:1019400001226C492046009501F000FA0028F5D1EB
:1019500094F83C00012868D0012084F83C002068FD
:101960000168C90703D1016841F0010101602068E5
:10197000016821F400610160222084F83D001020FC
:1019800084F83E0000262664C4F824806785608DB4
:1019900020855948E0622B464A465146204601F0D0
:1019A000EBF8002878D1208D544F68B1012814D06D
:1019B00002282068016816D041F480610160206827
:1019C00041698069009087E02068416981690091E0
:1019D000016841F4007101607EE02068016821F433
:1019E00080610160F0E721F4806101602068016896
:1019F00041F40061E2E7032848D801280AD0022810
:101A000014D04B46002239462046009501F09EF93D
:101A1000D8BB27E02A464946204601F016FAA0BB6B
:101A200020680069616A08704DE061E04B46002261
:101A300039462046009501F089F930BB20680168DD
:101A400041F40071016020680069616A0870606A91
:101A5000401C6062218D491E2185618D491E618572
:101A600021682EE02068016821F48061016020680F
:101A70000069616A0870606A401C6062208D401EC7
:101A80002085608D401E6085D0E705E02A464946E6
:101A9000204601F0DAF910B10120BDE8F88F206886
:101AA0000069616A0870606A401C6062218D491E8D
:101AB0002185618D491E618521684A69D24352079B
:101AC0000AD409690170606A401C6062208D401E62
:101AD0002085608D401E6085208D00288BD12020C0
:101AE00084F83D0084F83E6084F83C600020D4E730
:101AF0000220D2E7020010000000FFFF04000100F6
:101B00002DE9F84F1F4690468A460446DDF8289096
:101B1000FFF786FD054694F83D0020287FD1192364
:101B2000012240492046009501F010F9002876D1A5
:101B300094F83C00012872D0012084F83C00206811
:101B40000168C90703D1016841F001010160206803
:101B5000016821F400610160212084F83D0010201B
:101B600084F83E0000262664C4F824806785608DD2
:101B700020852D48E0622B464A465146204601F01A
:101B800071F890B9206841698069009036E02A4672
:101B90004946204601F08CF950B1206C042804D14C
:101BA0002068016841F4007101600120BDE8F88FF0
:101BB000606A216800780861606A401C6062618D1B
:101BC000491E6185218D491E89B22185226853698C
:101BD000DB435B070BD451B100781061606A401C95
:101BE0006062608D401E6085208D401E20852A46E3
:101BF0004946204601F084F80028CED1208D0028E7
:101C0000C5D154F83D0B016841F4007101602020FA
:101C100004F81E09E67766770020C7E7FFE7022091
:101C2000C4E70000020010000000FFFFF0B587B01D
:101C3000044614216846FEF7FBFA2768204CDFF8BB
:101C40007CC01F4912220123032504261D4810349D
:101C5000674515D10F6847F002070F60096801F06A
:101C600002010591C0218DE86E006946FFF7EAFB8D
:101C7000206840F400102060206800F4001019E093
:101C8000DFF844C0674516D10F6847F002070F60C0
:101C9000096801F0020105914FF440618DE86E0082
:101CA0006946FFF7CFFB206840F480002060206881
:101CB00000F48000059007B0F0BD00000054004023
:101CC0003038024000040240005800400248816859
:101CD00002781144816070473C0000200B4810B529
:101CE000016841F400710160016841F480610160A4
:101CF000016841F480710160032000F071F8002058
:101D000000F006F800F024F8002010BD003C02406E
:101D100070B50D4D04464FF47A712878B1FBF0F0A0
:101D20000A490968B1FBF0F000F004FB48B9102C37
:101D300007D200222146501E00F032F800206C60CD
:101D400070BD012070BD00003C0000204800002054
:101D50000B4882B0016841F480410160006800F4E2
:101D6000804000900648001F016841F080510160EA
:101D7000006800F080500090072002B000F030B8FA
:101D800044380240002809DB00F01F020121914085
:101D90004009800000F1E020C0F800117047000009
:101DA000F0B40E4B1B680C46C3F30223C3F10705C6
:101DB000042D00D90425191D072901D2002300E0B4
:101DC000DB1E012606FA05F1491E214099409E407E
:101DD000761E16403143F0BC02F058BA0CED00E01C
:101DE000064900F0070208684FF6FF03184040EA72
:101DF0000220034A10430860704700000CED00E029
:101E00000000FA052DE9F0470E46050065D0DFF821
:101E10001481D8F80000F7B200F00F00B04207D2EA
:101E200088F80070D8F8000000F00F00B04254D1DC
:101E300028683D4C810712D5400703D5206840F43F
:101E4000E05020602878000703D5206840F4604007
:101E500020602068A96820F0F000084320602878FE
:101E6000C0072DD0304968680839012812D00228EF
:101E700013D0032811D00968890700292DDA2168B9
:101E800021F0030101432160FFF7CAFB814641F2C3
:101E9000883A0EE009688903EFE709688901ECE7F1
:101EA000FFF7BEFBA0EB0901514502D90320BDE8B5
:101EB000F0872068696800F00C00B0EB810FEFD16B
:101EC000D8F80010404601F00F01B14207D9077061
:101ED000006800F00F00B04201D00120E7E7287849
:101EE000400705D52068E96820F4E05008432060E9
:101EF0002878000706D52068296920F4604040EA68
:101F0000C100206000F038F82168084AC1F30311CD
:101F1000515CC8400649086006480068FFF7F8FEB3
:101F20000020C4E7003C024008380240E05B0008A3
:101F30004800002040000020044805490068096866
:101F4000044AC1F38221515CC84070474800002018
:101F500008380240F05B0008044805490068096839
:101F6000044AC1F34231515CC84070474800002028
:101F700008380240F05B0008154810B5006810F002
:101F80000C02144813D04110042A0FD0082A0ED195
:101F90000F4C241F2268236802F03F025B0207D522
:101FA0002068C0F38810A0FB010106E0084610BDC0
:101FB0002168C1F38811A1FB00010023FEF700F99D
:101FC0002168C1F30141491C4900B0FBF1F010BD8B
:101FD000083802400024F4002DE9F84F040076D0C0
:101FE0002078DFF838A3CE4DC00749D0DAF80010CA
:101FF0005046C1F38101012908D00068C0F3810077
:1020000002280AD1281D0068400206D528688003EE
:1020100036D560680028E2D032E06068B0F5803FD5
:1020200010D0B0F5A02F286810D020F480302860A0
:10203000286820F4802028606068A0B1FFF7F0FADB
:1020400006460CE0286840F48030F4E740F4802035
:102050002860F7E7FFF7E4FA801B642873D8286844
:102060008003F7D50CE0FFF7DBFA064605E000BF7A
:10207000FFF7D6FA801B6428F0D828688003F7D4CD
:102080002078DFF8A08280074FF000093ED5DAF80B
:102090000010504611F00C0F09D00068C0F3810009
:1020A00002280BD19D48001F0068400206D4286812
:1020B000800715D5E068012809D111E0E068B8B1C2
:1020C0000120C8F80000FFF7ABFA064605E020E162
:1020D000FFF7A6FA801B0228C0D828688007F7D52A
:1020E0002868216920F0F80040EAC10028600DE06E
:1020F000C8F80090FFF794FA064604E0FFF790FA5C
:10210000801B02281FD828688007F7D42078000792
:1021100022D5824E844861696C3671B1012101601B
:10212000FFF77EFA074604E0FFF77AFAC01B0228A1
:1021300009D830688007F7D50EE0C0F80090FFF7A7
:102140006FFA074605E082E0FFF76AFAC01B022833
:102150007DD830688007F7D42078400768D5DFF84D
:10216000BCB100270BF1380BDBF80000C0000BD42A
:10217000DBF8001041F08051CBF80010DBF80000D4
:10218000012700F080500090684E3068C00510D4E0
:10219000306840F480703060FFF742FA009005E04C
:1021A000FFF73EFA0099401A022850D83068C0055F
:1021B000F6D55A4EA068683601280FD00528306839
:1021C00010D020F001003060306820F00400306052
:1021D000A068B8B1FFF724FA00900FE0306840F033
:1021E0000100F4E740F004003060F7E7FFF718FA69
:1021F0000099411A41F28830814266D830688007E0
:10220000F4D50EE0FFF70CFA009007E0FFF708FAAC
:102210000099411A41F28830814256D830688007CF
:10222000F4D42FB1DBF8001021F08051CBF800106E
:10223000A069D0B3DAF800205146C2F38102022A25
:102240004AD00228484607D0C8F8600000E03CE0C9
:10225000FFF7E6F904463BE04746C8F86000FFF7A1
:10226000DFF9064605E000BFFFF7DAF9801B022818
:102270002BD828688001F7D4D4E907010843A16A64
:102280002B4A490802EB0141626A41EA8211084384
:1022900094F82C1040EA01612048001F01600120E1
:1022A0003866FFF7BDF9044605E034E0FFF7B8F9FA
:1022B000001B022809D828688001F7D52BE000BF51
:1022C000FFF7AEF9001B022802D90320BDE8F88F02
:1022D00028688001F4D41EE00128F7D00868E2697C
:1022E00000F48001914214D1226A00F03F01914232
:1022F0000FD147F6C071626A0140914209D1A26ACA
:1023000000F44031914204D1E16A00F070608842EB
:1023100001D00120DAE70020D8E7000008380240A9
:102320000038024000004742800E474200700040E3
:102330000000FFFF10B5401EB0F1807F01D30120E7
:1023400010BD4FF0E02460610F21601701F09EFF87
:102350000020A06107202061002010BD7047704759
:1023600070B590F83C20012A32D0012480F83C401E
:10237000022280F83D2003685A689D6822F07006AA
:102380000A6832435A60134B02689A4214D0B2F181
:10239000804F11D0104B9A420ED0104B9A420BD066
:1023A0000F4B9A4208D00F4B9A4205D00E4B9A42DF
:1023B00002D00E4B9A4204D1496825F0800319439C
:1023C000916080F83D40002180F83C10084670BDC7
:1023D000022070BD000001400004004000080040E1
:1023E000000C004000040140004001400018004083
:1023F00010B5040003D094F83D0010B107E00120AF
:1024000010BD002084F83C00204600F00DF80220AA
:1024100084F83D00211D206801F054FB012084F860
:102420003D00002010BD000008B500680649884244
:1024300008D10648016841F008010160006800F019
:102440000800009008BD0000000C00404038024029
:1024500070B5044690F83C00012817D0012584F897
:102460003C50022084F83D002068826822F0770208
:1024700022F47F4282600868502830D00DDC20288A
:102480004DD005DC98B310283BD148E0022070BD48
:10249000302844D0402834D139E0602828D0702832
:1024A00006D0B0F5805F2CD0B0F5005F29D10AE0EE
:1024B000CB68D1E90121206801F075FB20688168B3
:1024C00041F0770109E0CB68D1E90121206801F0F2
:1024D0006AFB2068816841F48041816011E0CA682C
:1024E0004968206801F034FC5021206807E016E0BC
:1024F000CA684968206801F03CFC6021206801F04E
:102500005CFB84F83D50002084F83C0070BDCA6834
:102510004968206801F01CFC40212068EFE7226830
:1025200001461046EBE7704770B504460068016944
:102530004FF00005C943890715D4C168C94389070D
:1025400011D4E91E0161012020772068806980078D
:10255000204602D0FFF7E7FF04E000F0C1F8204674
:1025600000F060F9257720680169C943490717D44D
:10257000C168C943490713D46FF004010161022007
:1025800020772068806910F4407F204602D0FFF752
:10259000CAFF04E000F0A4F8204600F043F92577D4
:1025A00020680169C943090716D4C168C9430907EE
:1025B00012D46FF008010161042020772068C069FF
:1025C0008007204602D0FFF7AEFF04E000F088F855
:1025D000204600F027F9257720680169C943C9061C
:1025E00017D4C168C943C90613D46FF01001016143
:1025F000082020772068C06910F4407F204602D070
:10260000FFF791FF04E000F06BF8204600F00AF9B4
:10261000257720680169C943C90708D1C168C94342
:10262000C90704D1891E0161204600F01FF9206806
:102630000169C943090609D4C168C943090605D41B
:102640006FF0800101612046FFF788FE2068016974
:10265000C943490609D4C168C943490605D46FF086
:1026600040010161204600F002F920680169C94378
:1026700089060BD4C168C943890607D46FF02001CD
:1026800001612046BDE87040FFF769BE70BD0000E3
:1026900010B586B0044614216846FDF7C9FD0D4902
:1026A0002068884214D10C480021026842F00102DF
:1026B0000260006800F001000590C0200090022038
:1026C000CDE90101CDE9031069460448FEF7BAFEE1
:1026D00006B010BD00040040303802400000024047
:1026E000704770B5044690F83C000D4601280DD0A7
:1026F000012684F83C60022084F83D0042B1042A9F
:1027000018D0082A2AD00C2A4DD139E0022070BDF9
:10271000206801F05BFA2068816941F0080181615D
:102720002068816921F004018161206881692A693A
:10273000114311E0206801F079FA2068816941F4C1
:10274000006181612068816921F480618161206874
:1027500081692A6941EA0221816124E0206801F04F
:102760009BFA2068C16941F00801C1612068C16914
:1027700021F00401C1612068C1692A69114311E097
:10278000206801F0BDFA2068C16941F40061C161AF
:102790002068C16921F48061C1612068C1692A692A
:1027A00041EA0221C16184F83D60002084F83C00C8
:1027B00070BD10B5040003D094F83D0010B107E0DF
:1027C000012010BD002084F83C00204600F00CF8E9
:1027D000022084F83D00211D206801F073F90120DA
:1027E00084F83D00002010BD08B500680B49884200
:1027F00012D10B48016841F002010160006800221B
:1028000000F00200009011461D20FFF7C9FABDE854
:1028100008401D20FFF7B6BA08BD000000040040C4
:10282000403802407047000010B50446006801229D
:1028300001F0ACF90B492068884202D00A4988426D
:1028400003D1416C41F4004141642068816801F08A
:102850000701062903D0016841F001010160002051
:1028600010BD0000000001400004014070477047A7
:10287000704770B5040004D094F83900002510B1F9
:1028800006E0012070BD84F83850204600F022F8A0
:10289000242084F839002068C16821F40051C16007
:1028A000204601F087FB2068016921F49041016115
:1028B0002068416921F02A0141612068C16841F422
:1028C0000051C160E563202084F8390084F83A00A3
:1028D000002070BDF0B587B0064614216846FDF7AC
:1028E000A7FC2F49DFF8B4C0376800252C48103901
:1028F00002220323072467451AD1066846F40036EE
:102900000660006800F400300590086840F001009F
:1029100008600868694600F0010005900C208DE809
:102920002500CDE903341F48FEF78CFD07B0F0BD4C
:10293000DFF874C06745F9D1076847F4802707605E
:10294000006800F480200590086840F008000860E6
:102950000868694600F0080005904FF440708DE863
:102960002500CDE903341148FEF76CFD114C1048E9
:1029700020604FF00060C4E901054014C4E9035031
:102980006561A561E561256220466562FEF748FC48
:1029900008B1FEF7A5FA7463A663C7E700440040D8
:1029A000403802400000024000480040000C024055
:1029B00028600240F4010020F8B5044690F83A007F
:1029C00020283CD1C1B3BAB394F83800012836D0DE
:1029D000012084F83800A162A2850025E563222049
:1029E00084F83A00636B1748D863636B1648186421
:1029F000636B1648D864606B134605650846666BC2
:102A0000216802463046091DFEF774FC2068016803
:102A10004168009184F83850C16841F48071C16008
:102A20002068416941F0010141612068416941F03C
:102A3000400141610020F8BDFFE70120FBE70220D3
:102A4000F9E70000413F00087D3F0008F73E00081D
:102A500010B50068094988420FD1094801F018FDF6
:102A60004FF4C87206490748FFF7A6FF0122BDE8E8
:102A7000104011030448FEF7CDBD10BD00480040D2
:102A800064060020B4010020000C024070472DE9CC
:102A9000F843044690F839001F4616460D46202894
:102AA00050D1B5B1AEB194F8380001284AD0012018
:102AB00084F838004FF00008C4F83C80212084F8E6
:102AC0003900FEF7ADFDA6848146E68484F838809F
:102AD00026E00120BDE8F883E08C401EE084A06879
:102AE0004B46B0F5805F4FF000024FF0800120466A
:102AF000009703D001F0F2FAE8B90DE001F0EEFA28
:102B0000C8B928882168C0F308004860206908B166
:102B10006D1C05E0AD1C03E0216815F8010B486051
:102B2000E08C0028D8D14B46002240212046009757
:102B300001F0D4FA08B10320CCE7202084F8390052
:102B40000020C7E70220C5E7FEE701684A69D243D3
:102B500052050FD46FF480624A61002140F8301FA3
:102B6000202242738173026942F004020261017300
:102B700001207047002070472DE9F84F0446C06AD5
:102B80001E4693460D4621680A6842F480620A6038
:102B9000082807D0012805D010F5803F02D0206B0F
:102BA000112804D12068016841F4807101604FF060
:102BB00001195B46002249462046009600F0C6F8FF
:102BC0004FF4007840B120680068C00501D5C4F812
:102BD00040800320BDE8F88F2069DFF884A0B0F5BD
:102BE000804F0FD00620216800EAD51747F0F0008B
:102BF000086133465A460AF10601204600F0DAF829
:102C000058BB03E0E8B240F001001CE02168E8B2E4
:102C1000086133465A465146204600F0CBF8E0B9E9
:102C20002068416981690091016841F48071016007
:102C30005B46002249462046009600F087F80028AF
:102C4000C1D147F0F1002168086133465A46514628
:102C5000204600F0AFF80028BCD00120BAE7000001
:102C600002000100F8B50446C06A1E460D4617462C
:102C7000082807D0012805D010F5803F02D0206B2E
:102C8000122804D12068016841F480710160134664
:102C900000224FF001112046009600F057F840B195
:102CA00020680068C00502D54FF40070206403203E
:102CB000F8BD2069B0F5804F0ED00620216800EAEB
:102CC000D51040F0F000086133463A460B492046E3
:102CD00000F070F878B902E005F0FE0000E0E8B21C
:102CE00021680861054933463A46891F204600F0AD
:102CF00061F80028DCD00120F8BD000008000100C8
:102D000070B516460D4604460DE02046FFF71DFF40
:102D100008B1012070BD681C05D0FEF781FC801B46
:102D2000A84207D835B120684069C0434007ECD4B9
:102D3000002070BD002044F8300F20216173A07383
:102D4000216941F0200121612073E2E72DE9F0477C
:102D50001E4690460D460446C1F30747DDF8209015
:102D600008E0701C06D0FEF75BFCA0EB0900B04247
:102D70000FD876B12068012F18D0806925EA0000AD
:102D80000004000C14D000214145EAD00020BDE829
:102D9000F087002044F8300F20216173A07321696F
:102DA00041F02001216120730120F0E74069E5E74F
:102DB0000121E9E72DE9F0479A4691460E4604467F
:102DC00000254FF02008C1F3074725E0206840693F
:102DD000C043400514D42068016841F400710160CB
:102DE00021686FF480604861256384F83D8084F831
:102DF0003E50206C40F00400206484F83C501FE0FA
:102E0000B9F1FF3F08D0FEF70BFCA0EB0A014945E2
:102E10000CD8B9F1000F09D02068012F13D08069B8
:102E200026EA00000004000C0BD0CFE744F8305F26
:102E300084F80D80A573206940F02000206125737F
:102E40000120BDE8F0874069EAE72DE9F04100255F
:102E500090460E460446202717E04069C043C0064E
:102E60000CD454F8301B6FF01000486144F810592E
:102E70006777A577206A2062257717E0FEF7D0FBF9
:102E8000A0EB0800B04208D83EB120684169C943B0
:102E90004906E2D40020BDE8F08144F8305F677352
:102EA000A573206940F02000206125730120F2E71E
:102EB00070B516460D4604460DE02046FFF745FE68
:102EC00008B1012070BD681C05D0FEF7A9FB801B6E
:102ED000A84207D835B120684069C0430006ECD449
:102EE000002070BD002044F8300F20216173A073D2
:102EF000216941F0200121612073E2E770B50122D0
:102F00001A4D94039AB021462846FEF783FB18A178
:102F1000684601F0A7F96846FDF795F982B2642387
:102F200069461748FFF7B3FD4FF4FA663046FEF7DF
:102F300019FA14A1684601F095F96846FDF783F97E
:102F400082B2642369460E48FFF7A1FD3046FEF7C2
:102F500009FA0022A1102846FEF75CFB0022214658
:102F60002846FEF757FB1AB070BD0000000C024067
:102F700041542B4349504D55583D310D0A00000036
:102F8000B401002041542B434950534552564552F9
:102F90003D312C38300D0A007FB512A06424006842
:102FA000114DCDE90040288A022381B201AA0F48C1
:102FB000FEF7A6FD0EA00223006800940290288A66
:102FC00002AA81B20948FEF79BFD0AA0022300680D
:102FD00000940390288A03AA81B20448FEF790FD6A
:102FE0007FBD000081D5000000000020A00000206F
:102FF0008F000000800300002DE9F04186B014210D
:103000006846FDF715F926480024016841F00101E2
:103010000160016801F001010591016841F00201C0
:103020000160016801F002010591016841F00801A9
:103030000160016801F008010591016841F010018B
:1030400001600068174F00F010004FF470450590C4
:10305000002229463846FEF7DDFADFF84C807E155F
:10306000002231464046FEF7D5FA00950125CDE90C
:103070000154694638460394FEF7E4F90096CDE919
:103080000154694640460394FEF7DCF903208DE8BD
:10309000310069460548FEF7D5F906B0BDE8F08174
:1030A00030380240000C0240000402400010024090
:1030B00010B58AB0002407941C2168460894FDF7D7
:1030C000B7F815481349016040F29F51C0E9011457
:1030D00040F2E731C0E903148461FFF76AFB07940B
:1030E00007A90D480894FFF73BF96020CDE90004DB
:1030F00002940022694608480494FFF7F2FA042279
:1031000069460548FFF7EDFA0348FFF7C1FA0AB030
:1031100010BD000000040040F400002010B586B08F
:1031200000241248009401940294039404940E49DC
:10313000059401604721C0E901144FF6FE71C0E912
:1031400003148461FFF754F94FF4805000906946EE
:103150000648FFF77DF9049404A904480594FFF795
:10316000FFF806B010BD0000000C00403401002044
:1031700010B5124C6468204453B1012B0BD0022BC4
:1031800008D1002316E000BF10F8014BCC545B1CA3
:103190009342F9D310BD002305E000BF30F8024B85
:1031A00021F813405B1C9342F8D310BD10C841F8BE
:1031B00023405B1C9342F9D310BD0000180000208F
:1031C000014A107051607047180000202DE9F0414D
:1031D000224D0F469846696816460C18FEF71CF9F2
:1031E00002212878FDF77EFEFEF7CEF8FEF714F9EF
:1031F0005FEA080005D0012810D0B8F1020F28D1ED
:103200001AE0002507E000237A5D21461846FEF704
:10321000C5F8641C6D1CB542F5D31AE0002508E022
:1032200037F81520002321460120FEF7B7F8A41C2B
:103230006D1CB542F4D30CE0002508E057F82520BA
:10324000002321460220FEF7A9F8241D6D1CB5427B
:10325000F4D3BDE8F041FEF797B800001800002055
:10326000FEE77047704700000149096888637047AE
:10327000F40000200149096848637047F400002009
:1032800070B537A08AB000686425364C009505906B
:10329000208A012381B205AA3348FEF731FC0026BB
:1032A000CDE90056208A022381B201AA2E48FEF7FA
:1032B00037FBBDF80400E0802CA0012300680095D6
:1032C0000690208A06AA81B22748FEF719FC0296CA
:1032D0000095208A022381B202AA2348FEF720FB30
:1032E000BDF80800208122A0012300680095079006
:1032F000208A07AA81B21C48FEF702FC03960095BB
:10330000208A022381B203AA1748FEF709FBBDF801
:103310000C00608117A00123006800950890208AA6
:1033200008AA81B21048FEF7EBFB04960095208AAC
:10333000022381B204AA0C48FEF7F2FABDF810008D
:10334000A08121896289090401EB02210844E188F6
:1033500001EB8101490090FBF1F060610AB070BDA2
:103360009400000000000020A00000209600000053
:10337000980000009A00000010B5002000F02CF921
:10338000BDE8104000F052BA2DE9FE4F0746C2F1E9
:10339000010014460FFA80F9C2EBC43040000FFA66
:1033A00080FB0D46081981B298464FF0010A0026AD
:1033B000B8B21A4600F0F0F8281B81B2B8B2424603
:1033C00000F0EAF838190290A9B280B2424600F043
:1033D000E3F8381B0190A9B280B2424600F0DCF855
:1033E0000298ABB2CDF8008082B2A9B246E000BF2D
:1033F000B9F1000F09DB0BF102000FFA80FB641E2C
:1034000009EB0B0024B20FFA80F90AF102000FFA5F
:1034100080FA761C09EB0A0036B20FFA80F92819F7
:1034200083B281B2B81BCDE9008007EB060C1FFA0E
:103430008CF2CDF808C080B200F028F80198291B62
:10344000DDF808C08BB282B2CDF8008089B21FFAD5
:103450008CF000F01BF8391BA8198AB2029183B2D4
:1034600081B23819CDE9008080B200F00FF80299DE
:10347000A81B8AB283B2CDF8008081B2019880B2D5
:1034800000F004F8A642B3DBBDE8FE8F2DE9FC4F47
:103490001D4614460E460746802800D37F27802C01
:1034A00000D37F24402E00D33F26402D00D33F255C
:1034B000A74201D2E01B00E0381B0FFA80F9AE42B0
:1034C00001D2A81B00E0701B0FFA80FA4FF0FF300A
:1034D000A74201D2012100E001460191AE4200D293
:1034E000012083464846D14501DCCAF1000000EBCB
:1034F000D07040F34F08B9F1000F23D0BAF1000F9C
:1035000035D0C9F100000090314638460B9A00F0E2
:1035100043F8A74201D1AE4227D0009940468845E2
:1035200006DDA8EB0A010FFA81F8019939448FB240
:103530005045E9DA08EB09000FFA80F806EB0B00BA
:1035400086B2E1E7B54202D22846354686B2BC4291
:1035500000D2A7B234B206E0A1B238460B9A00F00E
:103560001BF8641C24B2AC42F6DDBDE8FC8FB5420A
:1035700000D2AEB2BC4202D220463C4687B23DB237
:1035800006E0A8B231460B9A00F006F86D1C2DB289
:10359000A542F6DDE9E7000070B5802813D2402986
:1035A00011D20B4B012401F007051E79AC40094BE9
:1035B000C90800EBC1100EB132B101E0012A03D0FD
:1035C000195CA143195470BD195C2143FAE700004E
:1035D000340000206402002028B1FF224FF48061F3
:1035E0000248FCF71EBE0022F8E70000640200203B
:1035F000014A1080518070473400002010B501F05E
:1036000055F844F62063012278215448FEF7D2F899
:1036100008B1002010BD40F6C210401EFDD1AE2200
:103620000021782001F048F820220021782001F0C4
:1036300043F810220021782001F03EF8B02200214A
:10364000782001F039F8C8220021782001F034F800
:1036500000221146782001F02FF810220021782056
:1036600001F02AF840220021782001F025F881227B
:103670000021782001F020F8FF220021782001F0BD
:103680001BF8A1220021782001F016F8A6220021C3
:10369000782001F011F8A8220021782001F00CF820
:1036A0003F220021782001F007F8A4220021782091
:1036B00001F002F8D3220021782000F0FDFF002263
:1036C0001146782000F0F8FFD5220021782000F084
:1036D000F3FFF0220021782000F0EEFFD922002134
:1036E000782000F0E9FF22220021782000F0E4FF9A
:1036F000DA220021782000F0DFFF1222002178205A
:1037000000F0DAFFDB220021782000F0D5FF202234
:103710000021782000F0D0FF8D220021782000F0D9
:10372000CBFF14220021782000F0C6FFAF22002139
:10373000782000F0C1FF2E220021782000F0BCFF8D
:103740000020FFF749FF00F071F8054800210180D3
:10375000418001214171084610BD00004C0000204D
:10376000340000202DE9F047814625480D46924659
:1037700001882A781144802905D2804640886978DA
:103780000844402802D30020BDE8F08700262AE044
:10379000A9F1200111FB00606A68002432F8107062
:1037A0001DE000BF07FA04F0000409D5B8F80210C4
:1037B000B8F800003144204489B280B252460BE090
:1037C000BAF1000F1AD00022B8F80210B8F80000C1
:1037D0003144204489B280B2FFF7DEFE641C2878B1
:1037E000A042DFD8761C6878B042D1D8B8F8001073
:1037F0002A7848461144A8F80010C5E70122E3E7FB
:103800003400002070B515460E46044609E02A46ED
:103810003146FFF7A7FF2178884201D0C8B270BDBA
:10382000641C20780028F2D1C0B270BD70B5104D74
:10383000002400BF04F1B000C2B20021782000F0E3
:103840003BFF00221146782000F036FF10220021B5
:10385000782000F031FF05EBC4128023402178204E
:1038600000F03AFF641CE4B2082CE3D370BD000002
:10387000640200207047000010B5374C9AB037A1A1
:10388000E288684600F0EEFC6846FCF7DCFC82B299
:10389000642369463448FFF7FAF8228933A1684661
:1038A00000F0E0FC6846FCF7CEFC82B26423694677
:1038B0002D48FFF7ECF862892FA1684600F0D2FC92
:1038C0006846FCF7C0FC82B2642369462648FFF7CD
:1038D000DEF8A2892BA1684600F0C4FC6846FCF71C
:1038E000B2FC82B2642369461F48FFF7D0F828A1D2
:1038F0006846626900F0B6FC6846FCF7A4FC82B238
:10390000642369461848FFF7C2F824480078F0B1EC
:103910003E20FFF7A9FC22A1684600F0A3FC684600
:10392000FCF791FC82B2642369460F48FFF7AFF8B9
:1039300021A1684600F096FC6846FCF784FC82B240
:10394000642369460848FFF7A2F81AB010BD606901
:10395000FDF7B0F9ECE7000000000020433A202515
:10396000642020200000000074010020523A20252D
:103970006420202000000000473A202564202020F9
:1039800000000000423A20256420202000000000B2
:10399000543A20256420202000000000220000204E
:1039A000202D3E2043616C696272616E646F20530A
:1039B000656E736F720000000D0A000000B599B0CB
:1039C0000223042209490020FFF700FC08A16846F1
:1039D00000F048FC6846FCF736FC82B26423694676
:1039E0000C48FFF754F819B000BD00005402002045
:1039F000436F6C6F72732073746F72656420696EAD
:103A0000206D656D6F727920666C6173682E0D0A8A
:103A10000000000074010020FEF758B930B593B0E3
:103A200030216846FCF704FC14210CA8FCF700FCCC
:103A300018480025016841F080510160006800F0DD
:103A4000805011901448016841F480410160006881
:103A5000022400F480401190012003901020049073
:103A6000009406940820CDE907504820CDE90904C8
:103A700007200B906846FEF7AFFA0CA90F2081E8EB
:103A80003100E002CDE90F0502210CA8FEF7BAF9DA
:103A900013B030BD40380240007000400548016856
:103AA00041F47001016003494FF000608039086003
:103AB0007047000088ED00E00148FEF735BD0000CA
:103AC000F4000020F0B50268254C264D264E274F05
:103AD000274B4FF0804CA04209D0604507D0A84248
:103AE00005D0B04203D0B84201D0984204D122F0B0
:103AF000700E4A6842EA0E02A0421BD0604519D0FF
:103B0000A84217D0B04215D0B84213D0984211D075
:103B1000184DA8420ED0184DA8420BD0174DA84200
:103B200008D0174DA84205D0164DA84202D0164D18
:103B3000A84203D122F44075CA682A434D6922F095
:103B400080022A4302608A68C2620A688262A042D6
:103B500001D0984201D10969016301214161F0BDA1
:103B6000000001400004004000080040000C00403C
:103B70000004014000400140004401400048014071
:103B800000180040001C00400020004010B501F06B
:103B90001F030121046A99408C430462016A9A4020
:103BA0001143016210BD10B5846842EA032224F477
:103BB0007F440A432243826010BD826822F0700273
:103BC0000A4342F00701816070470000F0B5026AC5
:103BD00022F001020262036A42688469124E24F0F4
:103BE00073050C682C4323F002058B682B430D4DA5
:103BF000A84201D0B04205D123F00807CB683B436F
:103C000023F00403A84201D0B04205D14D6922F44B
:103C1000407215438A692A4342608461496841635E
:103C20000362F0BD0000014000040140F0B5026AEB
:103C300022F010020262026A436884690D6824F46B
:103C4000E64444EA05248D6822F0200242EA051287
:103C50000F4D104EA84201D0B04206D1CF6822F0DD
:103C6000800242EA071222F04002A84201D0B0428C
:103C700007D14D6923F4406343EA85038D6943EA24
:103C8000850343608461496881630262F0BD00007E
:103C90000000014000040140F0B5026A22F4807285
:103CA0000262026A4368C46922F4007224F0730558
:103CB0000C68124E2C438D6842EA05220E4DA84234
:103CC00001D0B04206D1CF6822F4006242EA072256
:103CD00022F48062A84201D0B04207D14D6923F49A
:103CE000405343EA05138D6943EA05134360C461F9
:103CF0004968C1630262F0BD000001400004014058
:103D000030B5026A22F480520262046A4268C369D2
:103D10000D6823F4E64343EA05238D6824F4005438
:103D200044EA0534084DA84202D0084DA84204D107
:103D30004D6922F4804242EA85124260C3614968BB
:103D40000164046230BD0000000001400004014035
:103D500010B5036A046A24F001040462846924F043
:103D6000F00444EA021423F00A020A438461026266
:103D700010BD10B5036A23F0100303628369046A5F
:103D800023F4704343EA023224F0A00343EA011112
:103D90008261016210BD2DE9F8430446FFF7ECFA99
:103DA00000263F27354631463B462A4608460094C2
:103DB000FFF76CFB0120FDF7D5FAFFF737FDAD1DCE
:103DC000EDB2802DEFD37F27002531462B463A46B2
:103DD00008460094FFF75AFB0120FDF7C3FAFFF7EE
:103DE00025FDAD1DEDB2402DEFD30A20FDF7BAFA47
:103DF000FFF7C2FA00264FF07F083F2735463B46C3
:103E00002A46314640460094FFF740FBFFF70EFD7F
:103E10000120FDF7A7FAAD1DEDB2802DEFD30027ED
:103E20003D462B463A46314640460094FFF72EFB6E
:103E3000FFF7FCFC0120FDF795FAAD1DEDB2402D1A
:103E4000EFD30A20FDF78EFAFFF796FA4FF000083D
:103E50003F26474645463B462A4631464046009463
:103E6000FFF714FB0120FDF77DFAFFF7DFFCAD1D26
:103E7000EDB2802DEFD37F2700252B463A46314601
:103E800040460094FFF702FB0120FDF76BFAFFF7B5
:103E9000CDFCAD1DEDB2402DEFD30A20FDF762FA47
:103EA000FFF76AFA3F2600274FF07F083D463B4662
:103EB0002A46314640460094FFF7E8FA0120FDF714
:103EC00051FAFFF7B3FCAD1DEDB2802DEFD3002703
:103ED0003D462B463A46314640460094FFF7D6FA17
:103EE0000120FDF73FFAFFF7A1FCAD1DEDB2402D1B
:103EF000EFD3BDE8F88370B5846B2068406994F80F
:103F00003910C0F3C0100025212904D118B1E5846F
:103F1000204600F046F82068406994F83A10C0F353
:103F20008010222904D118B1E585204600F02BF835
:103F3000E06B40F01000E0632046FEF799FC70BD96
:103F400010B50146806B09680968C90513D40021C2
:103F5000C1850168CA6822F48072CA6001684A6932
:103F600022F001024A6101684A6922F040024A6176
:103F7000202180F83A10FEF76BFD10BD10B5806B64
:103F8000FEF784FD10BD0168CA6822F49072CA6011
:103F900001684A6922F001024A61202180F83A1042
:103FA00070470168CA6822F0C002CA60202180F808
:103FB000391070472DE9F041044600680169E26854
:103FC00021F44051114301612169A068E26908436D
:103FD0006169114308432168CA6849F20C639A4336
:103FE0000243CA6020684169A26921F4407111430B
:103FF0004161E069192764253226B0F5004F354A42
:10400000354920684FF0000806D0884201D0904220
:1040100036D1FDF7A1FF35E0884201D0904202D1B0
:10402000FDF79AFF01E0FDF787FF61684A18A0FBE2
:10403000070148EB0803FCF7C3F80146B0FBF5F0B5
:104040000201B1FBF5F06FF01803584301EB80005B
:1040500006EBC000B0FBF5F000F0F80002EB400208
:10406000B1FBF5F0584301EB800006EBC000B0FB5C
:10407000F5F000F00700216810448860BDE8F08189
:10408000FDF75AFF61688B0F8A00A0FB0701FCF760
:1040900097F80146B0FBF5F06FF01802504301EBC2
:1040A000800006EB0010B0FBF5F000F0F002B1FB71
:1040B000F5F002EB0012B1FBF5F06FF01803584376
:1040C00001EB800006EB0010B0FBF5F000F00F00F4
:1040D000D1E7000000140140001001402DE9F0413B
:1040E000984617460E460446069D1DE0681C1BD0E8
:1040F0002DB1FDF795FAA0EB0800A84214D920686D
:10410000C16821F4D071C1602068416921F00101CA
:104110004161202084F8390084F83A00002084F8B6
:1041200038000320BDE8F0812068006836EA00000E
:1041300004D00020B842D9D00020F3E70120F9E7ED
:1041400070B53448314A3249ADF5B16D0078127816
:1041500009788DE807003048314903782F48027804
:10416000B2A800F07FF8B2A8FCF76DF82D4C03461A
:104170002DA1227803A8303A00F074F803A8FCF7C8
:1041800062F882B2642303A92C48FEF780FC4FF446
:10419000FA752846FDF7E6F8B2AA29A103A800F0AF
:1041A00061F82846FDF7DEF803A8FCF74CF882B268
:1041B000642303A92148FEF76AFCA800FDF7D2F8A2
:1041C000227821A103A8303A00F04CF803A8FCF7AC
:1041D0003AF882B2642303A91848FEF758FC01227A
:1041E0001E4E540321463046FDF714FA2846FDF7CB
:1041F000B9F8002261103046FDF70CFA0022214682
:104200003046FDF707FA0DF5B16D70BD04000020D2
:104210000300002002000020010000200000002018
:104220004C5C00083A00002041542B434950534550
:104230004E443D25642C25640D0A0000B401002085
:1042400025730D0A0000000041542B434950434C94
:104250004F53453D25640D0A00000000000C02404C
:10426000FEE700000FB4084B10B504A902AA03989A
:1042700000F02CF8044602A9002000F003F92046C3
:1042800010BC5DF814FB0000854400080907090E06
:10429000002804DB00F1E02080F80014704700F0F3
:1042A0000F0000F1E02080F8141D704702E008C8FC
:1042B000121F08C1002AFAD170477047002001E0A0
:1042C00001C1121F002AFBD1704700002DE9FF4FEA
:1042D0008BB09A460F460546002606E025280BD0EF
:1042E00052460D9990476D1C761C28780028F5D110
:1042F0000FB03046BDE8F08F0024A046012260498F
:1043000000E0044315F8013F203B02FA03F00842A5
:10431000F7D128782E2817D115F8010F44F004049E
:104320002A280ED06FF02F022878A0F13001092939
:104330000AD808EB880102EB410100EB01086D1C73
:10434000F2E757F8048B6D1C287869283ED006DC0C
:104350000028CDD063280BD0642804D136E0732820
:1043600010D075284BD052460D999047761C85E0A9
:1043700017F8040B8DF8000000208DF80100E946C5
:10438000012003E057F8049B4FF0FF3061074FF026
:10439000000401D40AE0641C44450DDA8442FADBCF
:1043A00019F804100029F6D106E0641C8442FCDBF5
:1043B00019F804100029F8D1264404E019F8010B7B
:1043C00052460D999047641EF8D257E001CF4FF046
:1043D0000A0B002802DA40422D2102E0210504D513
:1043E0002B218DF82410012103E0E10705D02021C5
:1043F000F7E70DF1200908910CE00021F9E701CF62
:104400004FF00A0BF9E75946FBF724FF01F13002A0
:1044100009F8012D0028F6D1ADEB090000F1200BC1
:10442000600701D44FF00108D84502DDA8EB0B006E
:1044300000E000208046002406E009A85246005D06
:104440000D999047641C761C08988442F5DB04E0C3
:10445000302052460D999047761CB8F10001A8F122
:104460000108F5DC05E019F8010B52460D9990475B
:10447000761CBBF10001ABF1010BF4DC6D1C34E7E1
:10448000092801000A68531C0B6010707047000077
:104490002DE9F0410122154E0446550329463046C8
:1044A000FDF7B8F8124B00224FF4C8771978A05CDA
:1044B0002B2810D1A01890F801C0BCF1490F0AD1E7
:1044C00090F802C0BCF1500F05D190F803C0BCF1C8
:1044D000440F00D14179521CBA42E8DB19702946D9
:1044E0003046BDE8F0410022FDF794B8000C0240D0
:1044F0003A00002008B5FDF7F1FBFFF78FFAFEF751
:104500007BFD50480024016841F4001101600068FF
:10451000224600F40010009021460C20FDF740FCDC
:104520000C20FDF72FFCFEF7C3FD484846494FF429
:10453000804501604649C0E90114C0E90345446172
:104540008461C4610462FDF771F8FEF7E7FD3F483E
:104550004049543001604049C0E90114C0E90345B5
:1045600044618461C4610462FDF760F83C483B49E2
:104570004FF4E1350160C0E901540C26C460C0E984
:1045800004468461C461FEF774F93548354940300A
:104590000160C0E90154C460C0E904468461C4619B
:1045A000FEF767F92E4800218038FEF73DF92C48C8
:1045B00004218038FEF738F9FEF7EEFC1820FEF7EC
:1045C00059FE4320FEF750FE27490B20FEF7F8FD69
:1045D0000223042225490020FEF7CAFDFFF70EF84A
:1045E0000120FFF7D8FBFEF7C7FE05210846FEF7BE
:1045F000FFFF01221E491FA0FFF704F919212820FF
:10460000FEF7F6FF01221A491DA0FFF7FBF82C2147
:104610000F20FEF7EDFF012215491BA0FFF7F2F86E
:10462000FFF704F90E484FF4C8721A494030FEF7FC
:10463000C3F900F031F800BFFBF756FEFCF710F9A4
:10464000FAE7000030380240005400404C000020DF
:10465000801A060000580040A08601000044004077
:10466000740100200048004000000E0854020020A1
:104670002C0000205055534820425554544F4E00B2
:104680004D454E5500000000464F522053544152B4
:1046900054000000640600200348002101704170AE
:1046A0008170C17001717047000000200148401EF8
:1046B000FDD1704790D003001CB502238DF8041083
:1046C0000A2100918DF80520014601AA0148FDF755
:1046D00017FA1CBD4C00002070B5C2B000248DF844
:1046E000041001A904E0155D0E19641C7570E4B294
:1046F0009C42F8D30A2100915B1C01469BB201AA9F
:104700000248FDF7FDF942B070BD00004C000020EA
:104710000000000000000000000000000000000099
:104720000000000000100010001000100010001029
:1047300000000010000000000028002800280000F1
:104740000000000000000000000000000024002421
:10475000007C00240048007C004800480000000065
:104760000038005400500038001400540054003841
:1047700000100000002000540058003000280054B1
:10478000001400080000000000100028002800109D
:104790000034004800480034000000000010001001
:1047A00000100000000000000000000000000000F9
:1047B0000008001000200020002000200020002021
:1047C0000010000800200010000800080008000881
:1047D0000008000800100020001000380010002819
:1047E00000000000000000000000000000000000C9
:1047F00000100010007C00100010000000000000FD
:104800000000000000000000000000000000001098
:104810000010001000000000000000000000003840
:104820000000000000000000000000000000000088
:104830000000000000000010000000000008000858
:1048400000100010001000100020002000000000E8
:104850000038004400440054004400440044003840
:104860000000000000100030005000100010001088
:104870000010001000000000003800440044000454
:10488000000800100020007C0000000000380044F8
:104890000004001800040004004400380000000078
:1048A00000080018002800280048007C00080008C4
:1048B00000000000007C004000400078000400047C
:1048C0000044003800000000003800440040007838
:1048D000004400440044003800000000007C000454
:1048E0000008001000100020002000200000000040
:1048F00000380044004400380044004400440038BC
:10490000000000000038004400440044003C000463
:10491000004400380000000000000000001000000B
:104920000000000000000010000000000000000077
:104930000000001000000000000000100010001037
:1049400000000000000C003000400030000C0000AF
:1049500000000000000000000000007C0000007C5F
:1049600000000000000000000000000000600018CF
:10497000000400180060000000000000003800443F
:1049800000040008001000100000001000000000EB
:1049900000380044004C0054005C004000400038E7
:1049A0000000000000100028002800280028007CDB
:1049B00000440044000000000078004400440078F7
:1049C0000044004400440078000000000038004427
:1049D000004000400040004000440038000000005B
:1049E0000070004800440044004400440048007047
:1049F00000000000007C00400040007C00400040BF
:104A00000040007C00000000007C00400040007876
:104A1000004000400040004000000000003800441A
:104A200000400040005C00440044003800000000EA
:104A3000004400440044007C00440044004400441E
:104A400000000000003800100010001000100010DE
:104A500000100038000000000004000400040004FE
:104A60000004000400440038000000000044004836
:104A70000050006000500048004800440000000062
:104A80000040004000400040004000400040007CEA
:104A9000000000000044006C006C0054004400441E
:104AA000004400440000000000440064006400541E
:104AB0000054004C004C004400000000003800444A
:104AC000004400440044004400440038000000005A
:104AD000007800440044004400780040004000405A
:104AE000000000000038004400440044004400443A
:104AF00000540038000400000078004400440044E2
:104B000000780048004800440000000000380044DD
:104B1000004000300008000400440038000000009D
:104B2000007C001000100010001000100010001099
:104B300000000000004400440044004400440044DD
:104B400000440038000000000044004400440028F5
:104B5000002800280010001000000000004400445D
:104B6000005400540054006C00280028000000008D
:104B700000440028002800100010002800280044ED
:104B8000000000000044004400280028001000102D
:104B90000010001000000000007C0004000800105D
:104BA000001000200040007C0000000000180010F1
:104BB000001000100010001000100010001000186D
:104BC0000020002000100010001000100008000855
:104BD0000000000000300010001000100010001055
:104BE00000100010001000300010002800280044C1
:104BF00000000000000000000000000000000000B5
:104C0000000000000000000000000000000000FEA6
:104C10000020001000000000000000000000000064
:104C2000000000000000000000380044003C004488
:104C3000004C0034000000000040004000580064B8
:104C40000044004400640058000000000000000020
:104C500000380044004000400044003800000000DC
:104C6000000400040034004C00440044004C0034B4
:104C7000000000000000000000380044007C0040FC
:104C80000044003800000000000C0010007C001000
:104C900000100010001000100000000000000000D4
:104CA0000034004C00440044004C00340004007800
:104CB00000400040005800640044004400440044A8
:104CC0000000000000100000007000100010001034
:104CD0000010001000000000001000000070001024
:104CE0000010001000100010001000E00040004014
:104CF00000480050006000500048004400000000E0
:104D000000700010001000100010001000100010C3
:104D1000000000000000000000780054005400541F
:104D2000005400540000000000000000005800641F
:104D30000044004400440044000000000000000063
:104D400000380044004400440044003800000000E3
:104D50000000000000580064004400440064005853
:104D600000400040000000000034004C00440044BB
:104D7000004C0034000400040000000000580064EF
:104D80000040004000400040000000000000000023
:104D900000380044003000080044003800000000E3
:104DA00000200020007800200020002000200018B3
:104DB00000000000000000000044004400440044E3
:104DC000004C0034000000000000000000440044DB
:104DD000002800280028001000000000000000004B
:104DE000005400540054006C00280028000000000B
:104DF00000000000004400280010001000280044BB
:104E000000000000000000000044004400280028CA
:104E1000001000100010006000000000007C00087E
:104E2000001000200040007C00000000001800106E
:104E300000100010002000200010001000100018CA
:104E400000100010001000100010001000100010E2
:104E500000100010003000100010001000080008C2
:104E6000001000100010003000000000000000746E
:104E7000004C0000000000000000000000000000E6
:104E80000000000000000000000000000000000022
:104E90000000000000000000000000000000000012
:104EA0000000000C000C000C000C000C000C000CAE
:104EB000000C000C000C000C0000000C000C0000AA
:104EC000000000000000001B001B001B001B001B5B
:104ED00000000000000000000000000000000000D2
:104EE00000000000000000000000801980198019F7
:104EF0008019C07FC07F80190033C07FC07F00331E
:104F00000033003300330000000000000000001EEA
:104F1000003F807580650074003C001E000780051E
:104F2000806580658075003F001E0004000400005D
:104F30000000007000D840D8C0D880D900730006A7
:104F4000000C801BC036C066C046C006800300004F
:104F5000000000000000001E003F0033003300335B
:104F6000001E000CC03CC066806380618063C03E50
:104F7000801C0000000000000000000C000C000C71
:104F8000000C000C00000000000000000000000009
:104F90000000000000000000000000008000000190
:104FA0000003000600060004000C000C000C000CBE
:104FB000000C000C00040006000600030001800045
:104FC000002000100018000C000C00040006000671
:104FD00000060006000600060004000C000C001885
:104FE000001000200000000C002D003F001E0033C8
:104FF00000000000000000000000000000000000B1
:105000000000000000000000000000000000000C94
:10501000000C000C000CC0FFC0FF000C000C000CCA
:10502000000C000000000000000000000000000074
:105030000000000000000000000000000000000070
:10504000000000000000000C000C00040004000838
:105050000000000000000000000000000000000050
:105060000000001E001E0000000000000000000004
:105070000000000000000000000000000000000030
:105080000000000000000000000000000000000C14
:10509000000C0000000000000000000300030003FB
:1050A0000006000600060006000C000C000C000CB8
:1050B0000018001800180000000000000000001E8A
:1050C000003F0033806180618061806D806D806110
:1050D000806180610033003F001E0000000000007E
:1050E00000000006000E001E003600260006000626
:1050F0000006000600060006000600060006000086
:10510000000000000000001E003F8073806180618D
:10511000800100030006000C001800300060807F52
:10512000807F0000000000000000001C003E0063C3
:1051300000630003000E000E000380018001806107
:105140008073003F001E0000000000000000000609
:10515000000E000E001E001E00160036003600660F
:10516000807F807F0006000600060000000000002F
:105170000000007F007F006000600060006E007F24
:1051800080638001800180618073003F001E000009
:10519000000000000000001E003F803380610060BE
:1051A000006E007F80738061806180618033003F8A
:1051B000001E0000000000000000807F807F800152
:1051C0000003000300060006000C000C000C0008A1
:1051D0000018001800180000000000000000001E69
:1051E000003F8063806180610021001E003F80617C
:1051F000806180618061003F001E000000000000AF
:105200000000001E003F0073806180618061807338
:10521000803F801D800180610073003F001E000000
:105220000000000000000000000000000000000C72
:10523000000C000000000000000000000000000C56
:10524000000C000000000000000000000000000052
:1052500000000000000C000C000000000000000036
:105260000000000C000C0004000400080000000016
:105270000000000080008003000E0038006000384D
:10528000000E80038000000000000000000000000D
:1052900000000000000000000000807F807F000010
:1052A0000000807F807F0000000000000000000000
:1052B000000000000000000000000000004000703E
:1052C000001C000780010007001C00700040000067
:1052D00000000000000000000000001F803FC071BF
:1052E000C060C000C00180030007000E000C000C6D
:1052F0000000000C000C0000000000000000001E78
:10530000003F803180718063806F806D806D806F21
:10531000806700600032003E001C000000000000BA
:105320000000000E000E001B001B001B001B803144
:105330008031803F803F8031C060C060C06000002D
:10534000000000000000007C007E0063006300633A
:105350000063007E007E0063806180618063007F67
:10536000007E0000000000000000001E003F8031B1
:10537000806100600060006000600060006080612B
:105380008031003F001E0000000000000000007C93
:10539000007F0063806380618061806180618061E3
:1053A000806100630063007E007C0000000000005C
:1053B0000000807F807F0060006000600060007FF0
:1053C000007F0060006000600060807F807F0000E0
:1053D000000000000000807F807F006000600060AF
:1053E0000060007F007F006000600060006000607F
:1053F00000600000000000000000001E003F80313F
:105400008061006000600060806380638061806113
:105410008031803F001E000000000000000080611D
:1054200080618061806180618061807F807F806138
:105430008061806180618061806100000000000007
:105440000000003F003F000C000C000C000C000CA2
:10545000000C000C000C000C000C003F003F000092
:1054600000000000000080018001800180018001B7
:105470008001800180018001806180618073003F34
:10548000001E0000000000000000C060806100639A
:1054900000660066006C0078007C006600660063B1
:1054A00080618061C06000000000000000000060BA
:1054B00000600060006000600060006000600060EC
:1054C000006000600060807F807F000000000000BE
:1054D0000000C071C071C07BC07AC06AC06AC06E73
:1054E000C064C060C060C060C060C060C0600000D8
:1054F00000000000000080718071807980798079DF
:10550000806D806D806D8065806780678067806357
:1055100080630000000000000000001E003F003318
:105520008061806180618061806180618061806173
:105530000033003F001E0000000000000000007E5D
:10554000007F80638061806180618063007F007E76
:10555000006000600060006000600000000000006B
:105560000000001E003F0033806180618061806127
:1055700080618061806580670033803F401E00004D
:10558000000000000000007E007F80638061806179
:105590008063007F007E006600630063806180613D
:1055A000C0600000000000000000000E001F8031FD
:1055B000803100300038001E000780038061806168
:1055C0008031003F001E0000000000000000C0FF0E
:1055D000C0FF000C000C000C000C000C000C000CB8
:1055E000000C000C000C000C000C0000000000007F
:1055F0000000806180618061806180618061806184
:1056000080618061806180618073003F001E0000C6
:10561000000000000000C060C060C06080318031C8
:105620008031001B001B001B001B000E000E000E33
:1056300000040000000000000000C0C0C0C0C0C0E6
:10564000C0C0C0C0C0CC804C804C805E80528052B4
:105650008073806180610000000000000000C0C015
:10566000806080610033003B001E000C000C001EB7
:10567000001F003B80718061C0C00000000000007E
:105680000000C0C08061806100330033001E001E36
:10569000000C000C000C000C000C000C000C0000B6
:1056A000000000000000803F803F800100030003F5
:1056B0000006000C000C0018001800300060807F0D
:1056C000807F000000000000000F000F000C000CA5
:1056D000000C000C000C000C000C000C000C000C6A
:1056E000000C000C000C000C000F000F0000001854
:1056F00000180018000C000C000C000C000600063E
:105700000006000600030003000300000000000084
:10571000001E001E00060006000600060006000629
:105720000006000600060006000600060006000649
:10573000001E001E0000000C000C001E00120033B2
:105740000033806180610000000000000000000064
:105750000000000000000000000000000000000049
:105760000000000000000000000000000000000039
:105770000000000000000000E0FF00000000003812
:105780000018000C000000000000000000000000F5
:105790000000000000000000000000000000000009
:1057A00000000000000000000000001F803F80613A
:1057B0008001801F803F80618063807FC03800004F
:1057C0000000000000000060006000600060006EEB
:1057D000007F807380618061806180618073007F61
:1057E000006E00000000000000000000000000004B
:1057F0000000001E003F80738061006000608061D7
:105800008073003F001E00000000000000008001C7
:10581000800180018001801D803F807380618061F4
:10582000806180618073803F801D00000000000067
:1058300000000000000000000000001E003F007398
:105840008061807F807F00608071003F001E0000CB
:10585000000000000000C007C00F000C000C807F9B
:10586000807F000C000C000C000C000C000C000CE5
:10587000000C00000000000000000000000000001C
:10588000801D803F80738061806180618061807352
:10589000803F801D80018063007F003E000000602B
:1058A000006000600060006F807F807180618061B7
:1058B0008061806180618061806100000000000083
:1058C00000000006000600000000003E003E00064A
:1058D000000600060006000600060006000600009E
:1058E000000000000006000600000000003E003E30
:1058F0000006000600060006000600060006000678
:1059000000060046007E003C000000600060006071
:105910000060806100630066006C007C00760063BC
:1059200000638061C0600000000000000000003ED5
:10593000003E0006000600060006000600060006FF
:105940000006000600060006000600000000000039
:105950000000000000000000000080DDC0FFC0CE9D
:10596000C0CCC0CCC0CCC0CCC0CCC0CCC0CC000063
:105970000000000000000000000000000000006FB8
:10598000807F8071806180618061806180618061E1
:105990008061000000000000000000000000000026
:1059A0000000001E003F8073806180618061806123
:1059B0008073003F001E0000000000000000000097
:1059C00000000000006E007F807380618061806154
:1059D00080618073007F006E006000600060006086
:1059E0000000000000000000801D803F8073806187
:1059F0008061806180618073803F801D80018001B3
:105A0000800180010000000000000000000000672D
:105A1000803F00390030003000300030003000306E
:105A20000030000000000000000000000000000046
:105A30000000001E803F80610060007F803F800189
:105A40008061007F001E00000000000000000000D8
:105A5000000800180018007F007F001800180018C8
:105A6000001800180018801F800F000000000000C0
:105A70000000000000000000000080618061806183
:105A800080618061806180618063807F803D0000F3
:105A90000000000000000000000000000000C060E6
:105AA000803180318031001B001B001B000E000E76
:105AB00000060000000000000000000000000000E0
:105AC000000080DD80DD80DD005500550055007749
:105AD000007700220022000000000000000000000B
