:020000040800F2
:10000000900400209D010008EF0F0008910F0008E8
:10001000ED0F0008A90200084913000800000000C5
:10002000000000000000000000000000F30F0008C6
:10003000AB02000800000000F10F0008F50F0008F7
:10004000B7010008B7010008B7010008B7010008B0
:10005000B7010008B7010008B7010008B7010008A0
:10006000B7010008B7010008B7010008B701000890
:10007000B7010008B7010008B7010008B701000880
:10008000B7010008B7010008B7010008B701000870
:10009000B7010008B7010008B7010008B701000860
:1000A000B7010008B7010008B7010008B701000850
:1000B00095100008B7010008B7010008B701000853
:1000C000B7010008B7010008B7010008B701000830
:1000D000B7010008B7010008B7010008B701000820
:1000E000B7010008B7010008B7010008B701000810
:1000F000B7010008B7010008B7010008B701000800
:10010000B7010008B7010008B7010008B7010008EF
:10011000B7010008B7010008B7010008B7010008DF
:10012000B7010008B7010008B7010008B7010008CF
:10013000B7010008B7010008B7010008B7010008BF
:10014000B7010008B7010008B7010008B7010008AF
:10015000B7010008B7010008B7010008B70100089F
:10016000B7010008B7010008B7010008B70100088F
:10017000B7010008B7010008B7010008000000003F
:10018000B7010008B7010008DFF80CD000F07AF8DA
:100190000048004789130008900400200648804763
:1001A00006480047FEE7FEE7FEE7FEE7FEE7FEE75C
:1001B000FEE7FEE7FEE7FEE7791000088901000888
:1001C0002DE9F05F0546002092469B46884606468C
:1001D000814640241BE0284641464746224600F01F
:1001E00041F853465A46C01A914110D31146184659
:1001F000224600F028F82D1A67EB01084F462246E8
:100200000120002100F01FF817EB00094E41201ECD
:10021000A4F10104DFDC484631462A464346BDE8E6
:10022000F09FD2B201E000F8012B491EFBD27047CB
:100230000022F6E710B513460A4604461946FFF7B2
:10024000F0FF204610BD202A04DB203A00FA02F11C
:10025000002070479140C2F1200320FA03F31943B4
:1002600090407047202A04DB203A21FA02F0002156
:10027000704721FA02F3D040C2F1200291400843B6
:1002800019467047064C074D06E0E06840F0010350
:1002900094E8070098471034AC42F6D3FFF778FF94
:1002A000F013000810140008FEE770472DE9F84F1E
:1002B00000224FF0010803254FF00F0E0B6808FADB
:1002C00002F42340A3426ED14E68012E05D0022EC7
:1002D00003D0112E01D0122E12D186684FEA420CA3
:1002E00005FA0CF7BE43CF6807FA0CF7374387606F
:1002F0004668A6430C79C4F3001494403443446028
:10030000C668570005FA07FC8C6826EA0C06BC4054
:100310003443C4604C68022C01D0122C13D1D40891
:1003200000EB8404A346D4F8209054074FEAD46A23
:100330000EFA0AF629EA06090E6906FA0AF646EAEC
:100340000906CBF8206006680C7926EA0C0604F052
:100350000304BC40344304604C68E40065D5364C6B
:10036000266846F480462660246822F0030604F4DA
:1003700080440094314C3444A446D4F8084896078D
:10038000370F0EFA07F6B4432D4EB04201D10026C6
:1003900024E02C4EB04201D101261FE02A4EB0428B
:1003A00002D102261AE040E0284EB04201D10326D5
:1003B00014E0274EB04201D104260FE0254EB04292
:1003C00001D105260AE0244EB04201D1062605E0FF
:1003D000224EB04201D1072600E00826BE40264347
:1003E000CCF808681E4E34684F689C43FF0300D564
:1003F0001C4334601A4C241D26684F689E43BF037B
:1004000000D51E432660164E083634684F689C435C
:10041000FF0200D51C433460114E0C3634684F681F
:100420009C43BF0200D51C433460521C102AFFF4C9
:1004300045AFBDE8F88F000044380240003001406D
:10044000000002400004024000080240000C02408C
:10045000001002400014024000180240001C02403C
:10046000003C014001488068704700000000002007
:1004700002488168027811448160704700000020C2
:100480000B4810B5016841F400710160016841F446
:1004900080610160016841F480710160032000F017
:1004A0006FF8002000F006F800F024F8002010BDDE
:1004B000003C024070B50D4D04464FF47A71287827
:1004C000B1FBF0F00A490968B1FBF0F000F002FB63
:1004D00048B9102C07D200222146501E00F030F8F7
:1004E00000206C6070BD012070BD00000000002085
:1004F0000C0000200A4808B5016841F48041016001
:10050000006800F4804000900548001F016841F039
:1005100080510160006800F08050009008BD00002C
:1005200044380240002809DB00F01F0201219140FD
:100530004009800000F1E020C0F800117047000081
:10054000F0B40E4B1B680C46C3F30223C3F107053E
:10055000042D00D90425191D072901D2002300E02C
:10056000DB1E012606FA05F1491E214099409E40F6
:10057000761E16403143F0BC00F0E7BE0CED00E003
:10058000064900F0070208684FF6FF03184040EAEA
:100590000220034A10430860704700000CED00E0A1
:1005A0000000FA052DE9F0470E46050065D0DFF89A
:1005B0001481D8F80000F7B200F00F00B04207D263
:1005C00088F80070D8F8000000F00F00B04254D155
:1005D00028683D4C810712D5400703D5206840F4B8
:1005E000E05020602878000703D5206840F4604080
:1005F00020602068A96820F0F00008432060287877
:10060000C0072DD0304968680839012812D0022867
:1006100013D0032811D00968890700292DDA216831
:1006200021F0030101432160FFF71CFF814641F2E5
:10063000883A0EE009688903EFE709688901ECE769
:10064000FFF710FFA0EB0901514502D90320BDE8D7
:10065000F0872068696800F00C00B0EB810FEFD1E3
:10066000D8F80010404601F00F01B14207D90770D9
:10067000006800F00F00B04201D00120E7E72878C1
:10068000400705D52068E96820F4E0500843206061
:100690002878000706D52068296920F4604040EAE0
:1006A000C100206000F038F82168084AC1F3031146
:1006B000515CC8400649086006480068FFF7FAFE2A
:1006C0000020C4E7003C024008380240D81300086C
:1006D0000C00002004000020044805490068096857
:1006E000044AC1F38221515CC84070470C000020CD
:1006F00008380240E8130008044805490068096802
:10070000044AC1F34231515CC84070470C000020DC
:1007100008380240E8130008154810B5006810F0CA
:100720000C02144813D04110042A0FD0082A0ED10D
:100730000F4C241F2268236802F03F025B0207D59A
:100740002068C0F38810A0FB010106E0084610BD38
:100750002168C1F38811A1FB00010023FFF730FDE0
:100760002168C1F30141491C4900B0FBF1F010BD03
:10077000083802400024F4002DE9F84F040076D038
:100780002078DFF838A3CE4DC00749D0DAF8001042
:100790005046C1F38101012908D00068C0F38100EF
:1007A00002280AD1281D0068400206D52868800367
:1007B00036D560680028E2D032E06068B0F5803F4E
:1007C00010D0B0F5A02F286810D020F48030286019
:1007D000286820F4802028606068A0B1FFF742FEFE
:1007E00006460CE0286840F48030F4E740F48020AE
:1007F0002860F7E7FFF736FE801B642873D8286867
:100800008003F7D50CE0FFF72DFE064605E000BF9C
:10081000FFF728FE801B6428F0D828688003F7D4EF
:100820002078DFF8A08280074FF000093ED5DAF883
:100830000010504611F00C0F09D00068C0F3810081
:1008400002280BD19D48001F0068400206D428688A
:10085000800715D5E068012809D111E0E068B8B13A
:100860000120C8F80000FFF7FDFD064605E020E185
:10087000FFF7F8FD801B0228C0D828688007F7D54D
:100880002868216920F0F80040EAC10028600DE0E6
:10089000C8F80090FFF7E6FD064604E0FFF7E2FD2A
:1008A000801B02281FD828688007F7D4207800070B
:1008B00022D5824E844861696C3671B10121016094
:1008C000FFF7D0FD074604E0FFF7CCFDC01B022870
:1008D00009D830688007F7D50EE0C0F80090FFF720
:1008E000C1FD074605E082E0FFF7BCFDC01B022802
:1008F0007DD830688007F7D42078400768D5DFF8C6
:10090000BCB100270BF1380BDBF80000C0000BD4A2
:10091000DBF8001041F08051CBF80010DBF800004C
:10092000012700F080500090684E3068C00510D458
:10093000306840F480703060FFF794FD009005E06F
:10094000FFF790FD0099401A022850D83068C00582
:10095000F6D55A4EA068683601280FD005283068B1
:1009600010D020F001003060306820F004003060CA
:10097000A068B8B1FFF776FD00900FE0306840F056
:100980000100F4E740F004003060F7E7FFF76AFD8C
:100990000099411A41F28830814266D83068800758
:1009A000F4D50EE0FFF75EFD009007E0FFF75AFD7B
:1009B0000099411A41F28830814256D83068800748
:1009C000F4D42FB1DBF8001021F08051CBF80010E7
:1009D000A069D0B3DAF800205146C2F38102022A9E
:1009E0004AD00228484607D0C8F8600000E03CE042
:1009F000FFF738FD04463BE04746C8F86000FFF7C4
:100A000031FD064605E000BFFFF72CFD801B0228E4
:100A10002BD828688001F7D4D4E907010843A16ADC
:100A20002B4A490802EB0141626A41EA82110843FC
:100A300094F82C1040EA01612048001F0160012059
:100A40003866FFF70FFD044605E034E0FFF70AFDC6
:100A5000001B022809D828688001F7D52BE000BFC9
:100A6000FFF700FD001B022802D90320BDE8F88F24
:100A700028688001F4D41EE00128F7D00868E269F4
:100A800000F48001914214D1226A00F03F019142AA
:100A90000FD147F6C071626A0140914209D1A26A42
:100AA00000F44031914204D1E16A00F07060884264
:100AB00001D00120DAE70020D8E700000838024022
:100AC0000038024000004742800E4742007000405C
:100AD0000000FFFF10B5401EB0F1807F01D3012060
:100AE00010BD4FF0E02460610F21601700F02DFC75
:100AF0000020A06107202061002010BD70477047D2
:100B000070B590F83C20012A32D0012480F83C4096
:100B1000022280F83D2003685A689D6822F0700622
:100B20000A6832435A60134B02689A4214D0B2F1F9
:100B3000804F11D0104B9A420ED0104B9A420BD0DE
:100B40000F4B9A4208D00F4B9A4205D00E4B9A4257
:100B500002D00E4B9A4204D1496825F08003194314
:100B6000916080F83D40002180F83C10084670BD3F
:100B7000022070BD00000140000400400008004059
:100B8000000C0040000401400040014000180040FB
:100B9000704700002DE9F041044690F83C000D46F6
:100BA00001283DD0012684F83C60022084F83D00F5
:100BB000AAB3042A46D02068082A55D0D5E90027D0
:100BC000E968036A23F480530362D0F81CC0036A07
:100BD0002CF4407C4CEA07274FF6FF7C27F4704743
:100BE0000CEA013139434FF4204723F4204307EA4C
:100BF00002321A43C16102622068C16921F4406176
:100C0000C1612068C169AA6841EA0221C0F81C10CC
:100C100084F83D60002084F83C00BDE8F08101E0EC
:100C20000220FAE7D5E90012EB68206800F09CFA90
:100C30002068816921F00C01816120688169AA68BE
:100C400011430FE0D5E90012EB68206800F0CCFA00
:100C50002068816921F44061816120688169AA6806
:100C600041EA02218161D3E7D5E9002C2F7B016A9B
:100C700021F480710162C169036A21F0030141EA34
:100C80000C0121F0F00C39074FF420674CEA116198
:100C900023F4206307EA02221A43C161026220683A
:100CA000C16921F00C01C1612068C169AA681143C2
:100CB000ACE710B5040003D094F83D0010B107E094
:100CC000012010BD002084F83C00204600F00CF804
:100CD000022084F83D00211D206800F0E1F9012088
:100CE00084F83D00002010BD10B586B004461421E4
:100CF0006846FFF79DFA2068B0F1804F26D114486E
:100D00000021026842F001020260006800F0010068
:100D100005900F481038026842F001020260006836
:100D200000F00100059002200090CDE901010120B2
:100D3000CDE9031069460748FFF7B8FA00221146CB
:100D40001C20FFF7FDFB1C20FFF7ECFB06B010BDDD
:100D5000403802400000024070B504460068016956
:100D60004FF00005C943890715D4C168C9438907F5
:100D700011D4E91E01610120207720688069800775
:100D8000204602D0FFF704FF04E000F098F8204668
:100D900000F096F8257720680169C943490717D400
:100DA000C168C943490713D46FF0040101610220EF
:100DB00020772068806910F4407F204602D0FFF73A
:100DC000E7FE04E000F07BF8204600F079F8257794
:100DD00020680169C943090716D4C168C9430907D6
:100DE00012D46FF008010161042020772068C069E7
:100DF0008007204602D0FFF7CBFE04E000F05FF84A
:100E0000204600F05DF8257720680169C943C906CE
:100E100017D4C168C943C90613D46FF0100101612A
:100E2000082020772068C06910F4407F204602D057
:100E3000FFF7AEFE04E000F042F8204600F040F874
:100E4000257720680169C943C90708D1C168C9432A
:100E5000C90704D1891E0161204600F032F82068DC
:100E60000169C943090609D4C168C943090605D403
:100E70006FF0800101612046FFF740FE20680169A4
:100E8000C943490609D4C168C943490605D46FF06E
:100E900040010161204600F015F820680169C9434E
:100EA00089060BD4C168C943890607D46FF02001B5
:100EB00001612046BDE87040FFF721BE70BD70475C
:100EC00070477047704770B5040004D094F839003B
:100ED000002510B106E0012070BD84F8385020468E
:100EE00000F022F8242084F839002068C16821F439
:100EF0000051C160204600F093F92068016921F497
:100F0000904101612068416921F02A014161206816
:100F1000C16841F40051C160E563202084F83900C4
:100F200084F83A00002070BD10B586B00446142144
:100F30006846FFF77DF913492068884220D112489E
:100F4000016841F400310160006800F40030059050
:100F50000D481038016841F00101016000686946E0
:100F600000F0010005900C2000900220019001206B
:100F7000029003200390072004900448FFF796F99D
:100F800006B010BD0044004040380240000002405E
:100F9000FEE7000010B586B00024134805940494C1
:100FA0000094019402944FF0804103940160472122
:100FB000C0E901144FF6FE71C0E903148461FFF724
:100FC00078FE049404A908480594FFF799FD0120D0
:100FD000CDE9004002940422694603480394FFF7D8
:100FE000D9FD06B010BD000010000020FEE77047DC
:100FF00070477047FFF73CBA30B593B03021684670
:10100000FFF716F914210CA8FFF712F9184800256C
:10101000016841F080510160006800F0805011903B
:101020001448016841F4804101600068022400F422
:1010300080401190012003901020049000940694A9
:101040000820CDE907504820CDE9090407200B907E
:101050006846FFF791FB0CA90F2081E83100E00200
:10106000CDE90F0502210CA8FFF79CFA13B030BDA3
:1010700040380240007000400548016841F47001AA
:10108000016003494FF0006080390860704700003C
:1010900088ED00E00148FFF75FBE0000100000206F
:1010A000F0B50268254C264D264E274F274B4FF0B2
:1010B000804CA04209D0604507D0A84205D0B0427C
:1010C00003D0B84201D0984204D122F0700E4A6891
:1010D00042EA0E02A0421BD0604519D0A84217D0A8
:1010E000B04215D0B84213D0984211D0184DA84242
:1010F0000ED0184DA8420BD0174DA84208D0174D5E
:10110000A84205D0164DA84202D0164DA84203D1E0
:1011100022F44075CA682A434D6922F080022A43AE
:1011200002608A68C2620A688262A04201D0984264
:1011300001D10969016301214161F0BD0000014055
:101140000004004000080040000C00400004014082
:1011500000400140004401400048014000180040A8
:10116000001C00400020004070B5046A24F0010417
:1011700004628469056A154EB04214D0B0F1804F04
:1011800011D0134EB0420ED0124EB0420BD0124EC0
:10119000B04208D0114EB04205D0114EB04202D03C
:1011A000104EB04203D124F00304144301E044F094
:1011B00001041A0724F0F00444EA126225F00A033D
:1011C00001F00A0119438261016270BD0000014013
:1011D0000004004000080040000C004000040140F2
:1011E000004001400018004030B5046A24F01004AB
:1011F00004628469056A24F4407444EA022222F4F9
:1012000070444FF6FF7202EA03322243A02425F015
:10121000A00304EA011119438261016230BD00009C
:101220002DE9F041044600680169E26821F440516B
:10123000114301612169A068E269084361691143B2
:1012400008432168CA6849F20C639A430243CA60A2
:1012500020684169A26921F4407111434161E0694C
:10126000192764253226B0F5004F354A35492068E4
:101270004FF0000806D0884201D0904236D1FFF7E7
:101280003BFA35E0884201D0904202D1FFF734FAB0
:1012900001E0FFF721FA61684A18A0FB070148EB5B
:1012A0000803FEF78DFF0146B0FBF5F00201B1FB2C
:1012B000F5F06FF01803584301EB800006EBC00017
:1012C000B0FBF5F000F0F80002EB4002B1FBF5F0E6
:1012D000584301EB800006EBC000B0FBF5F000F0D6
:1012E0000700216810448860BDE8F081FFF7F4F939
:1012F00061688B0F8A00A0FB0701FEF761FF0146C2
:10130000B0FBF5F06FF01802504301EB800006EBE4
:101310000010B0FBF5F000F0F002B1FBF5F002EBCD
:101320000012B1FBF5F06FF01803584301EB800099
:1013300006EB0010B0FBF5F000F00F00D1E7000065
:101340000014014000100140FEE70907090E0028C3
:1013500004DB00F1E02080F80014704700F00F007B
:1013600000F1E02080F8141D704702E008C8121F49
:1013700008C1002AFAD170477047002001E001C17E
:10138000121F002AFBD1704708B5FFF779F8FFF765
:1013900033FE0E480024016841F00101016000683D
:1013A00000F001000090FFF7F5FD0A4808490160D0
:1013B0004FF4E131C0E901140C21C460C0E90441DB
:1013C0008461C461FFF77FFDFEE700003038024012
:1013D0000044004050000020000000000000000019
:1013E00001020304060708090000000001020304CB
:1013F0001014000800000020100000006A1300080C
:101400002014000810000020800400007A13000857
:101410000100000010000000000000000024F400A3
:040000050800018965
:00000001FF
