:020000040800F2
:10000000100500209D0100084F1A00085B19000828
:100010004D1A00084D070008F11F000800000000FD
:100020000000000000000000000000009D1A000811
:10003000990A000800000000511A00081D1C000861
:10004000B7010008B7010008B7010008B7010008B0
:10005000B7010008B7010008B7010008B7010008A0
:10006000B7010008B7010008B7010008B701000890
:10007000B7010008B7010008B7010008B701000880
:10008000B7010008B7010008B7010008B701000870
:10009000B7010008B7010008B7010008B701000860
:1000A000B7010008B7010008B7010008B701000850
:1000B000BD1C0008B7010008B7010008B70100081F
:1000C000B7010008B7010008B7010008B701000830
:1000D000B7010008B7010008B7010008B701000820
:1000E000B7010008B7010008B7010008B701000810
:1000F000B7010008B7010008B7010008B701000800
:10010000B7010008B7010008B7010008B7010008EF
:10011000B7010008B7010008B7010008B7010008DF
:10012000B7010008B7010008B7010008B7010008CF
:10013000B7010008B7010008B7010008B7010008BF
:10014000B7010008B7010008B7010008B7010008AF
:10015000B7010008B7010008B7010008B70100089F
:10016000B7010008B7010008B7010008B70100088F
:10017000B7010008B7010008B7010008000000003F
:10018000B7010008B7010008DFF80CD000F0CCFA86
:1001900000480047BD2100081005002006488047A0
:1001A00006480047FEE7FEE7FEE7FEE7FEE7FEE75C
:1001B000FEE7FEE7FEE7FEE7A11C00088901000854
:1001C0002DE9F05F0546002092469B46884606468C
:1001D000814640241BE0284641464746224600F01F
:1001E00024FA53465A46C01A914110D31146184674
:1001F000224600F00BFA2D1A67EB01084F46224603
:100200000120002100F002FA17EB00094E41201EE8
:10021000A4F10104DFDC484631462A464346BDE8E6
:10022000F09FD2B201E000F8012B491EFBD27047CB
:100230000022F6E710B513460A4604461946FFF7B2
:10024000F0FF204610BD421C10F8011B0029FBD115
:10025000801A70472DE9FE4F804681EA0300C00FE7
:100260000C46009021F0004123F00045B8EB02005D
:10027000A94105D24046214690461C460B460246FF
:1002800023F00040104347D0270DC7F30A00C3F303
:100290000A510290401A019040286BDAC3F3130010
:1002A00040F4801B0098924620B10023D2EB030A51
:1002B00063EB0B0B01985946C0F14002504600F029
:1002C000A5F906460D4650465946019A00F0BDF97B
:1002D00010EB08006141002487EA115284EAE773B9
:1002E0001A4340D0009A62B3019A012A4FEA07529A
:1002F00015DC001B61EB02014FF0004202EA0752DD
:10030000CDE90042001C41F5801132462B4600F039
:10031000BDF903B0BDE8F08F40462146F9E7001B68
:1003200061EB0201001C41F5801300185B412018AD
:10033000A2F5001747EB030140EAD570B6196D41ED
:1003400011E06D084FEA360645EAC0754FEA0752DC
:10035000001B61EB0201001C41F5801149084FEAC6
:1003600030000019514132462B4603B0BDE8F04F32
:1003700000F07DB90098012240000023D0EB02027A
:1003800063EBE073009821464FEAE074B8EB00009D
:1003900061EB0401E9E783F000435BE781F0004192
:1003A00058E72DE9FE4F81EA030404F0004421F0F0
:1003B000004100944FF0000B23F0004350EA010489
:1003C0005ED052EA03045BD0C3F30A54C1F30A556A
:1003D0002C44A4F2F3340194A0FB0254C1F31301A2
:1003E00041F48011C3F3130343F4801301FB02446F
:1003F00000FB034E840A970A44EA815447EA835774
:10040000A4FB076802958D0A05FB07854FEA932C2C
:1004100004FB0C542705029D4FEA065847EA16379D
:10042000B5EB08056EEB070C870E920E47EA8117B5
:1004300042EA8312A7FB0201B6EB0B0164EB000456
:100440002B0D43EA0C335E1844EB1C50DA46514640
:10045000E7FB0201C5F313044FEA0B3343EA1453DD
:100460004FEA0432019C43EA0603A4F10C0402940F
:10047000009CCDE900B400F009F903B0BDE8F08FAD
:1004800000200146F9E72DE9F04D81EA030404F06C
:10049000004B21F0004514464FF0000A23F00041C4
:1004A00050EA050220D054EA01021DD0C5F30A57D4
:1004B0000246C5F31303C1F31300C1F30A5640F417
:1004C000801543F48013A7EB0608101BD64608F2EC
:1004D000FD3873EB050002D308F1010801E0921822
:1004E0005B41B8F1000F03DA00200146BDE8F08D52
:1004F00000204FF48011064684460EE0171B73EB74
:10050000050705D3121B63EB050306434CEA010CF8
:1005100049084FEA300092185B4150EA0107EDD1DB
:1005200052EA030012D082EA040083EA050108437C
:1005300005D0101BAB4106D20122002306E00022A9
:100540004FF0004302E06FF0010253101AEB060077
:100550004CEB085110EB0A0041EB0B01BDE8F04DEC
:1005600000F085B80EB540F2334102910021CDE98B
:1005700000110A460B4600F089F803B000BD0000E8
:1005800030B5041E71F1000404DB4FF0004440421A
:1005900064EB0101141E73F1000405DB1C464FF0EF
:1005A0000043524263EB04038B4208BF824230BDDA
:1005B00030B5041E71F1000404DB4FF000444042EA
:1005C00064EB0101141E73F1000405DB1C464FF0BF
:1005D0000043524263EB0403994208BF904230BD8E
:1005E00030B50B46014600202022012409E021FA03
:1005F00002F59D4205D303FA02F5491B04FA02F500
:100600002844151EA2F10102F1DC30BD202A04DBD2
:10061000203A00FA02F1002070479140C2F1200315
:1006200020FA03F3194390407047202A04DB203A54
:1006300021FA02F00021704721FA02F3D040C2F102
:1006400020029140084319467047202A06DBCB1749
:10065000203A41FA02F043EAE07306E041FA02F37D
:10066000D040C2F12002914008431946704710B5AE
:10067000141E73F1000408DA401C41F100019218C5
:100680005B411A4301D120F0010010BD2DE9F04D6E
:1006900092469B4611B1B1FA81F202E0B0FA80F2C3
:1006A00020329046FFF7B2FF04460F4640EA0A00A8
:1006B00041EA0B0153465A46084313D0114653EA08
:1006C000010019D0C8F140025046FFF7AEFF0546C1
:1006D0000E46504659464246FFF798FF084305D05C
:1006E000012004E020463946BDE8F08D0020054396
:1006F00046EAE0762C4337430A986305E40AA0EB08
:1007000008000022FD0A44EA47540A3002D50020BE
:100710000146E9E7010510196941DDE908450019BD
:100720006941BDE8F04DA2E7064C074D06E0E068E0
:1007300040F0010394E8070098471034AC42F6D328
:10074000FFF726FD3C2200085C220008FEE70000BF
:1007500030B5C24C2DED108B83B09FEDC1CB9FED1A
:10076000C2EB9FEDC3ABA0780546FFF7FBFE41EC63
:10077000100B53EC102B9FEDC00B51EC100BFFF73F
:1007800082FE41EC1B0B2078B5FBF0F0FFF7EAFE90
:1007900053EC1B2BFFF75EFD53EC1A2BFFF7F0FE1B
:1007A0000CD2A0782178B0FBF1F0FFF7DBFE53EC20
:1007B0001B2BFFF74FFD41EC190B03E0B0EE4A9AFB
:1007C000F0EE6A9AA078E178B0FBF1F0FFF7CAFE8C
:1007D00053EC1B2BFFF73EFD53EC1A2BFFF7D0FE1B
:1007E0000CD2A078E178B0FBF1F0FFF7BBFE53EC40
:1007F0001B2BFFF72FFD41EC180B03E0B0EE4A8AEC
:10080000F0EE6A8AA0786178B0FBF1F0FFF7AAFEFB
:1008100053EC1B2BFFF71EFD9FED951B53EC112B8B
:10082000FFF7AEFE0CD2A0786178B0FBF1F0FFF7D5
:1008300099FE53EC1B2BFFF70DFD41EC1A0B01E069
:100840009FED8BAB51EC190B53EC1A2BFFF7B0FE5D
:1008500004D8B0EE49BAF0EE69BA03E0B0EE4ABA95
:10086000F0EE6ABA53EC1B2B51EC180BFFF7A0FE0D
:1008700003D8B0EE48BAF0EE68BA53EC1A2B51EC3C
:10088000190BFFF77DFE04D8B0EE49FAF0EE69FAD5
:1008900003E0B0EE4AFAF0EE6AFA53EC1F2B51EC8B
:1008A000180BFFF76DFE03D8B0EE48FAF0EE68FAC9
:1008B00053EC1F2B51EC1B0BFFF76DFD41EC1D0B97
:1008C00053EC1F2B51EC1B0BFFF7C4FC53EC1E2BFE
:1008D000FFF767FD41EC1F0B9FED610B51EC1D0B0A
:1008E00053EC102BFFF74CFE79D053EC1E2B51EC40
:1008F0001F0BFFF745FE53EC1E2B51EC1D0BFFF7B2
:1009000050FD0D46044645EC1E0B53EC192B51ECE3
:100910001B0BFFF740FD9FED5A1B53EC112BFFF70C
:10092000B2FD53EC1E2BFFF795FC53EC1D2BFFF78C
:10093000AAFD41EC1F0B45EC1E4B53EC182B51EC60
:100940001B0BFFF728FD9FED4E1B53EC112BFFF700
:100950009AFD53EC1E2BFFF77DFC53EC1D2BFFF78C
:1009600092FD45EC104B41EC1E0B8DED000B53EC52
:100970001A2B51EC1B0BFFF70EFD9FED411B53ECA7
:10098000112BFFF780FD9DED000B53EC102BFFF7B3
:1009900061FC53EC1D2BFFF776FD41EC1D0B53EC76
:1009A0001B2B51EC190BFFF7EBFD04D153EC1E2B65
:1009B00051EC1D0B29E053EC1B2B51EC180BFFF7EE
:1009C000DFFD0DD151EC1F0B9FED2F0B53EC102BC6
:1009D000FFF740FC41EC100B53EC1D2B13E038E00B
:1009E00053EC1B2B51EC1A0BFFF7CAFD11D151EC44
:1009F0001E0B9FED270B53EC102BFFF72BFC53EC3A
:100A00001F2B41EC100B51EC100BFFF7C4FC41EC19
:100A10001C0B9FED130B51EC1C0B53EC102BFFF731
:100A2000AFFD09D251EC1C0B9FED110B53EC102BB9
:100A3000FFF710FC41EC1C0B03B051EC1C0BBDECA0
:100A4000108B9FED0B0BBDE8304053EC102BFFF7E4
:100A5000AFBD03B0BDEC108B30BD00000000002026
:100A60000000000000000000000000000000E03F67
:100A7000000000000000F03F0000000000000840FF
:100A80000000000000001840555555555555D53FFC
:100A9000555555555555E53F7047000070B504460E
:100AA00000F0F6F80546601C02D0044800780444C3
:100AB00000F0EEF8401BA042FAD370BD18000020F1
:100AC0002DE9F84F00224FF0010803254FF00F0EDB
:100AD0000B6808FA02F42340A3426ED14E68012E3F
:100AE00005D0022E03D0112E01D0122E12D186680D
:100AF0004FEA420C05FA0CF7BE43CF6807FA0CF731
:100B0000374387604668A6430C79C4F300149440C9
:100B100034434460C668570005FA07FC8C6826EA2F
:100B20000C06BC403443C4604C68022C01D0122C2B
:100B300013D1D40800EB8404A346D4F820905407C2
:100B40004FEAD46A0EFA0AF629EA06090E6906FA8D
:100B50000AF646EA0906CBF8206006680C7926EA10
:100B60000C0604F00304BC40344304604C68E40009
:100B700065D5364C266846F480462660246822F007
:100B8000030604F480440094314C3444A446D4F861
:100B900008489607370F0EFA07F6B4432D4EB042B9
:100BA00001D1002624E02C4EB04201D101261FE0E5
:100BB0002A4EB04202D102261AE040E0284EB0424E
:100BC00001D1032614E0274EB04201D104260FE0E4
:100BD000254EB04201D105260AE0244EB04201D193
:100BE000062605E0224EB04201D1072600E0082685
:100BF000BE402643CCF808681E4E34684F689C43BC
:100C0000FF0300D51C4334601A4C241D26684F682E
:100C10009E43BF0300D51E432660164E0836346837
:100C20004F689C43FF0200D51C433460114E0C36C4
:100C300034684F689C43BF0200D51C433460521C8B
:100C4000102AFFF445AFBDE8F88F00004438024099
:100C50000030014000000240000402400008024051
:100C6000000C024000100240001402400018024034
:100C7000001C0240003C0140426931EA020200D1FE
:100C80000904816170470AB1816170470904FBE77B
:100C90000148806870470000180000200248816801
:100CA0000278114481607047180000200B4810B58D
:100CB000016841F400710160016841F480610160E4
:100CC000016841F480710160032000F06FF800209A
:100CD00000F006F800F024F8002010BD003C0240AF
:100CE00070B50D4D04464FF47A712878B1FBF0F0E1
:100CF0000A490968B1FBF0F000F002FB48B9102C7A
:100D000007D200222146501E00F030F800206C600F
:100D100070BD012070BD00001800002024000020DC
:100D20000A4808B5016841F480410160006800F498
:100D3000804000900548001F016841F0805101602B
:100D4000006800F08050009008BD00004438024068
:100D5000002809DB00F01F020121914040098000BA
:100D600000F1E020C0F8001170470000F0B40E4B15
:100D70001B680C46C3F30223C3F10705042D00D9F9
:100D80000425191D072901D2002300E0DB1E0126DE
:100D900006FA05F1491E214099409E40761E1640F4
:100DA0003143F0BC01F03AB90CED00E0064900F027
:100DB000070208684FF6FF03184040EA0220034A82
:100DC00010430860704700000CED00E00000FA05D9
:100DD0002DE9F0470E46050065D0DFF81481D8F8FC
:100DE0000000F7B200F00F00B04207D288F80070A0
:100DF000D8F8000000F00F00B04254D128683D4CF4
:100E0000810712D5400703D5206840F4E0502060E8
:100E10002878000703D5206840F4604020602068EF
:100E2000A96820F0F000084320602878C0072DD082
:100E3000304968680839012812D0022813D00328E5
:100E400011D00968890700292DDA216821F00301F2
:100E500001432160FFF71CFF814641F2883A0EE012
:100E600009688903EFE709688901ECE7FFF710FFDC
:100E7000A0EB0901514502D90320BDE8F0872068A5
:100E8000696800F00C00B0EB810FEFD1D8F80010CA
:100E9000404601F00F01B14207D90770006800F029
:100EA0000F00B04201D00120E7E72878400705D5C0
:100EB0002068E96820F4E0500843206028780007A3
:100EC00006D52068296920F4604040EAC10020600E
:100ED00000F038F82168084AC1F30311515CC8409A
:100EE0000649086006480068FFF7FAFE0020C4E7DC
:100EF000003C024008380240242200082400002060
:100F00001C0000200448054900680968044AC1F330
:100F10008221515CC84070472400002008380240FC
:100F2000342200080448054900680968044AC1F3EE
:100F30004231515CC840704724000020083802400C
:100F400034220008154810B5006810F00C0214484F
:100F500013D04110042A0FD0082A0ED10F4C241FA1
:100F60002268236802F03F025B0207D52068C0F3C5
:100F70008810A0FB010106E0084610BD2168C1F3FE
:100F80008811A1FB00010023FFF71AF92168C1F3C2
:100F90000141491C4900B0FBF1F010BD0838024086
:100FA0000024F4002DE9F84F040076D02078DFF813
:100FB00038A3CE4DC00749D0DAF800105046C1F32F
:100FC0008101012908D00068C0F3810002280AD1FC
:100FD000281D0068400206D52868800336D5606861
:100FE0000028E2D032E06068B0F5803F10D0B0F564
:100FF000A02F286810D020F480302860286820F4C2
:10100000802028606068A0B1FFF742FE06460CE031
:10101000286840F48030F4E740F480202860F7E747
:10102000FFF736FE801B642873D828688003F7D545
:101030000CE0FFF72DFE064605E000BFFFF728FE97
:10104000801B6428F0D828688003F7D42078DFF864
:10105000A08280074FF000093ED5DAF80010504614
:1010600011F00C0F09D00068C0F3810002280BD1E9
:101070009D48001F0068400206D42868800715D5E7
:10108000E068012809D111E0E068B8B10120C8F892
:101090000000FFF7FDFD064605E020E1FFF7F8FD43
:1010A000801B0228C0D828688007F7D528682169E6
:1010B00020F0F80040EAC10028600DE0C8F8009078
:1010C000FFF7E6FD064604E0FFF7E2FD801B02287D
:1010D0001FD828688007F7D42078000722D5824ED1
:1010E000844861696C3671B101210160FFF7D0FD60
:1010F000074604E0FFF7CCFDC01B022809D8306882
:101100008007F7D50EE0C0F80090FFF7C1FD074655
:1011100005E082E0FFF7BCFDC01B02287DD83068E7
:101120008007F7D42078400768D5DFF8BCB10027E6
:101130000BF1380BDBF80000C0000BD4DBF800101B
:1011400041F08051CBF80010DBF80000012700F0DF
:1011500080500090684E3068C00510D4306840F46C
:1011600080703060FFF794FD009005E0FFF790FD80
:101170000099401A022850D83068C005F6D55A4E5A
:10118000A068683601280FD00528306810D020F0FC
:1011900001003060306820F004003060A068B8B111
:1011A000FFF776FD00900FE0306840F00100F4E7B3
:1011B00040F004003060F7E7FFF76AFD0099411A3C
:1011C00041F28830814266D830688007F4D50EE05D
:1011D000FFF75EFD009007E0FFF75AFD0099411A06
:1011E00041F28830814256D830688007F4D42FB15C
:1011F000DBF8001021F08051CBF80010A069D0B3CB
:10120000DAF800205146C2F38102022A4AD00228AD
:10121000484607D0C8F8600000E03CE0FFF738FD22
:1012200004463BE04746C8F86000FFF731FD06463C
:1012300005E000BFFFF72CFD801B02282BD8286893
:101240008001F7D4D4E907010843A16A2B4A490871
:1012500002EB0141626A41EA8211084394F82C10C2
:1012600040EA01612048001F016001203866FFF755
:101270000FFD044605E034E0FFF70AFD001B0228DD
:1012800009D828688001F7D52BE000BFFFF700FDE3
:10129000001B022802D90320BDE8F88F28688001CE
:1012A000F4D41EE00128F7D00868E26900F4800158
:1012B000914214D1226A00F03F0191420FD147F6CA
:1012C000C071626A0140914209D1A26A00F44031C2
:1012D000914204D1E16A00F07060884201D001209F
:1012E000DAE70020D8E70000083802400038024062
:1012F00000004742800E4742007000400000FFFFA0
:1013000010B5401EB0F1807F01D3012010BD4FF019
:10131000E02460610F21601700F080FE0020A061D2
:1013200007202061002010BD7047704770B590F80D
:101330003C20012A32D0012480F83C40022280F86F
:101340003D2003685A689D6822F070060A6832439F
:101350005A60134B02689A4214D0B2F1804F11D0F8
:10136000104B9A420ED0104B9A420BD00F4B9A4220
:1013700008D00F4B9A4205D00E4B9A4202D00E4B2A
:101380009A4204D1496825F080031943916080F89E
:101390003D40002180F83C10084670BD022070BD21
:1013A000000001400004004000080040000C004024
:1013B00000040140004001400018004070B505469F
:1013C000007F02281AD1164C2079C0B1012815D10E
:1013D0000421284600F0E9F9E0602A680021516202
:1013E000A268904201D9801A606121712868016A5F
:1013F00021F0A00101622868016A016270BD042128
:10140000284600F0D2F9A060012020712868016A06
:1014100021F0A00101622868016A41F02001ECE797
:10142000000000202DE9F041044690F83C000D46F4
:1014300001283DD0012684F83C60022084F83D005C
:10144000AAB3042A46D02068082A55D0D5E9002737
:10145000E968036A23F480530362D0F81CC0036A6E
:101460002CF4407C4CEA07274FF6FF7C27F47047AA
:101470000CEA013139434FF4204723F4204307EAB3
:1014800002321A43C16102622068C16921F44061DD
:10149000C1612068C169AA6841EA0221C0F81C1034
:1014A00084F83D60002084F83C00BDE8F08101E054
:1014B0000220FAE7D5E90012EB68206800F076FC1C
:1014C0002068816921F00C01816120688169AA6826
:1014D00011430FE0D5E90012EB68206800F0A6FC8C
:1014E0002068816921F44061816120688169AA686E
:1014F00041EA02218161D3E7D5E9002C2F7B016A03
:1015000021F480710162C169036A21F0030141EA9B
:101510000C0121F0F00C39074FF420674CEA1161FF
:1015200023F4206307EA02221A43C16102622068A1
:10153000C16921F00C01C1612068C169AA68114329
:10154000ACE710B5040003D094F83D0010B107E0FB
:10155000012010BD002084F83C00204600F00CF86B
:10156000022084F83D00211D206800F0ADFB012021
:1015700084F83D00002010BD10B586B0044614214B
:101580006846FEF755FE2068B0F1804F26D114481A
:101590000021026842F001020260006800F00100D0
:1015A00005900F481038026842F00102026000689E
:1015B00000F00100059002200090CDE9010101201A
:1015C000CDE9031069460748FFF77AFA0022114671
:1015D0001C20FFF7CBFB1C20FFF7BAFB06B010BDA9
:1015E000403802400000024010B50268044631B1A4
:1015F000042908D008291AD00C2908D11BE0D0688A
:1016000040F0020002E0D06840F00400D060012207
:10161000206800F0BDFB2068816801F00701062901
:1016200003D0016841F001010160002010BDD068C5
:1016300040F00800EAE7D06840F01000E6E770B537
:101640000446006801694FF00005C943890715D4B5
:10165000C168C943890711D4E91E016101202077BF
:10166000206880698007204602D0FFF7A7FE04E0CB
:1016700000F098F8204600F096F825772068016978
:10168000C943490717D4C168C943490713D46FF048
:1016900004010161022020772068806910F4407FF6
:1016A000204602D0FFF78AFE04E000F07BF82046D7
:1016B00000F079F8257720680169C943090716D435
:1016C000C168C943090712D46FF008010161042001
:1016D00020772068C0698007204602D0FFF76EFEA1
:1016E00004E000F05FF8204600F05DF82577206800
:1016F0000169C943C90617D4C168C943C90613D4CF
:101700006FF010010161082020772068C06910F493
:10171000407F204602D0FFF751FE04E000F042F87F
:10172000204600F040F8257720680169C943C907C1
:1017300008D1C168C943C90704D1891E0161204687
:1017400000F032F820680169C943090609D4C1686C
:10175000C943090605D46FF0800101612046FFF7F7
:10176000E3FD20680169C943490609D4C168C9433A
:10177000490605D46FF040010161204600F02AF8C7
:1017800020680169C94389060BD4C168C943890629
:1017900007D46FF0200101612046BDE87040FFF7DB
:1017A000C4BD70BD7047704770470246002041B10C
:1017B000042909D008290AD00C2901D11068006C2D
:1017C00070471068406B70471068806B70471068F6
:1017D000C06B7047704770B5040004D094F83900AE
:1017E000002510B106E0012070BD84F83850204675
:1017F00000F022F8242084F839002068C16821F420
:101800000051C160204600F02DFB2068016921F4E1
:10181000904101612068416921F02A0141612068FD
:10182000C16841F40051C160E563202084F83900AB
:1018300084F83A00002070BD10B586B0044614212B
:101840006846FEF7F5FC13492068884220D112480B
:10185000016841F400310160006800F40030059037
:101860000D481038016841F00101016000686946C7
:1018700000F0010005900C20009002200190012052
:10188000029003200390072004900448FFF718F902
:1018900006B010BD00440040403802400000024045
:1018A0002DE9F843044690F839001F4616460D46C8
:1018B000202850D1B5B1AEB194F8380001284AD0F3
:1018C000012084F838004FF00008C4F83C80212043
:1018D00084F83900FFF7DCF9A6848146E68484F8B1
:1018E000388026E00120BDE8F883E08C401EE084CB
:1018F000A0684B46B0F5805F4FF000024FF08001CA
:101900002046009703D000F041FBE8B90DE000F05D
:101910003DFBC8B928882168C0F3080048602069E9
:1019200008B16D1C05E0AD1C03E0216815F8010B42
:101930004860E08C0028D8D14B4600224021204648
:10194000009700F023FB08B10320CCE7202084F8A7
:1019500039000020C7E70220C5E7FEE72DE9F04384
:1019600087B014216846FEF763FC1F480024016815
:1019700041F001010160016801F001010591016878
:1019800041F0080101600068DFF8608000F00800A5
:101990004FF440560590224631464046FFF773F912
:1019A000DFF84C903711002239464846FFF76BF9B3
:1019B0000125CDE90054694648460294FFF780F8B6
:1019C0000096CDE90154694640460394FFF778F844
:1019D0000097CDE90154694648460394FFF770F833
:1019E00007B0BDE8F083000030380240000C024030
:1019F0000000024010B586B00024134805940494FA
:101A00000094019402944FF08041039401604721B7
:101A1000C0E901144FF6FE71C0E903148461FFF7B9
:101A200090FD049404A908480594FFF77FFC012069
:101A3000CDE9004002940422694603480394FFF76D
:101A4000F1FC06B010BD000028000020FEE7704742
:101A50007047000070B54FF400710F4C4D1080B10D
:101A6000012810D0022810D0032814D101222046CA
:101A7000FFF709F9012229462046BDE87040FFF72B
:101A800002B9002202E00022F1E701222046FFF71E
:101A9000FAF80022EFE770BD000002407047000036
:101AA00070B50122494E150329463046FFF7EBF881
:101AB0000020FFF7CFFF464C46A14948626900F07D
:101AC00099FA207D20704648FEF7BDFB444982B25A
:101AD0006423A1F14000FFF7E3FE0A20FEF7DEFFDA
:101AE0000320FFF7B7FF3FA13D48626900F082FA8B
:101AF000207DE0703A48FEF7A6FB394982B26423A4
:101B0000A1F14000FFF7CCFE0A20FEF7C7FF01203D
:101B1000FFF7A0FF37A13248626900F06BFA207D21
:101B200060702F48FEF78FFB2D4982B26423A1F12C
:101B30004000FFF7B5FE0A20FEF7B0FF0220FFF7D6
:101B400089FF2FA12648626900F054FA207DA07019
:101B50002348FEF778FB224982B26423A1F14000BA
:101B6000FFF79EFE0A20FEF799FF2078E178000437
:101B700000EB01206178421824A11948226100F08D
:101B800039FA1748FEF75FFB154982B26423A1F1C9
:101B90004000FFF785FE0A20FEF780FF1EA11048D7
:101BA00000F028FA0E48FEF74EFB0D4982B264237E
:101BB000A1F14000FFF774FE0A20FEF76FFF2946EF
:101BC0003046BDE870400022FFF75DB8000C0240CF
:101BD000000000205265643A202564202020000087
:101BE000A8000020477265656E3A202564202020F9
:101BF00000000000426C75653A202564202020001A
:101C0000436C6561723A202564202000436F6C6F3D
:101C1000723A2025640000000D0A0000FFF73EB86C
:101C200030B593B030216846FEF702FB14210CA8B2
:101C3000FEF7FEFA18480025016841F08051016066
:101C4000006800F0805011901448016841F4804110
:101C500001600068022400F480401190012003908C
:101C600010200490009406940820CDE907504820E5
:101C7000CDE9090407200B906846FFF793F90CA9FA
:101C80000F2081E83100E002CDE90F0502210CA808
:101C9000FFF79EF813B030BD40380240007000409E
:101CA0000548016841F47001016003494FF000608C
:101CB000803908607047000088ED00E00148FFF7B8
:101CC000BEBC000028000020F0B50268254C264D5F
:101CD000264E274F274B4FF0804CA04209D060453D
:101CE00007D0A84205D0B04203D0B84201D09842F4
:101CF00004D122F0700E4A6842EA0E02A0421BD0C4
:101D0000604519D0A84217D0B04215D0B84213D0C0
:101D1000984211D0184DA8420ED0184DA8420BD0B1
:101D2000174DA84208D0174DA84205D0164DA8421D
:101D300002D0164DA84203D122F44075CA682A4346
:101D40004D6922F080022A4302608A68C2620A68F2
:101D50008262A04201D0984201D109690163012148
:101D60004161F0BD00000140000400400008004057
:101D7000000C0040000401400040014000440140CC
:101D80000048014000180040001C004000200040B6
:101D900010B501F01F030121046A99408C430462CD
:101DA000016A9A401143016210BD000070B5046AD7
:101DB00024F0010404628469056A154EB04214D00F
:101DC000B0F1804F11D0134EB0420ED0124EB0423F
:101DD0000BD0124EB04208D0114EB04205D0114E79
:101DE000B04202D0104EB04203D124F00304144399
:101DF00001E044F001041A0724F0F00444EA1262FE
:101E000025F00A0301F00A0119438261016270BDE5
:101E1000000001400004004000080040000C0040A9
:101E200000040140004001400018004030B5046A41
:101E300024F0100404628469056A24F4407444EABE
:101E4000022222F470444FF6FF7202EA0332224368
:101E5000A02425F0A00304EA011119438261016264
:101E600030BD00002DE9F041044600680169E268D8
:101E700021F44051114301612169A068E2690843DE
:101E80006169114308432168CA6849F20C639A43A7
:101E90000243CA6020684169A26921F4407111437C
:101EA0004161E069192764253226B0F5004F354AB3
:101EB000354920684FF0000806D0884201D0904292
:101EC00036D1FFF72FF835E0884201D0904202D199
:101ED000FFF728F801E0FFF715F861684A18A0FB42
:101EE000070148EB0803FEF76BF90146B0FBF5F07C
:101EF0000201B1FBF5F06FF01803584301EB8000CD
:101F000006EBC000B0FBF5F000F0F80002EB400279
:101F1000B1FBF5F0584301EB800006EBC000B0FBCD
:101F2000F5F000F00700216810448860BDE8F081FA
:101F3000FEF7E8FF61688B0F8A00A0FB0701FEF740
:101F40003FF90146B0FBF5F06FF01802504301EB8A
:101F5000800006EB0010B0FBF5F000F0F002B1FBE2
:101F6000F5F002EB0012B1FBF5F06FF018035843E7
:101F700001EB800006EB0010B0FBF5F000F00F0065
:101F8000D1E7000000140140001001402DE9F041AC
:101F9000984617460E460446069D1DE0681C1BD059
:101FA0002DB1FEF775FEA0EB0800A84214D92068F9
:101FB000C16821F4D071C1602068416921F001013C
:101FC0004161202084F8390084F83A00002084F828
:101FD00038000320BDE8F0812068006836EA000080
:101FE00004D00020B842D9D00020F3E70120F9E75F
:101FF000FEE700000FB4084B10B504A902AA03982D
:1020000000F02CF8044602A9002000F0D1F8204688
:1020100010BC5DF814FB0000B12100080907090E8F
:10202000002804DB00F1E02080F80014704700F085
:102030000F0000F1E02080F8141D704702E008C88E
:10204000121F08C1002AFAD170477047002001E032
:1020500001C1121F002AFBD1704700002DE9FF4F7C
:1020600089B09B460446002506E025280BD05A4639
:102070000B999047641C6D1C20780028F5D10DB099
:102080002846BDE8F08F0027B8460122474900E006
:10209000074314F8013F203B02FA03F00842F7D14E
:1020A00020782E2819D114F8010F47F004072A28A8
:1020B0000ED06FF02F022078A0F1300109290CD842
:1020C00008EB880102EB410100EB0108641CF2E718
:1020D0000A98641C50F8048B0A9020780028CED00F
:1020E000642808D0692806D075281ED05A460B9956
:1020F00090476D1C58E00A994FF00A0901C90A91EE
:10210000002802DA40422D2102E0390504D52B21B6
:102110008DF82010012103E0F90704D02021F7E712
:102120008A4608AE0DE00021FAE70A994FF00A0945
:1021300001C90A91F7E74946FEF752FA303106F82D
:10214000011D0028F7D1ADEB060000F1200978074A
:1021500001D44FF00108C84502DDA8EB090000E0FA
:1021600000208046002706E008A85A46C05D0B996B
:1021700090476D1C7F1C5745F6DB04E030205A4623
:102180000B9990476D1CB8F10001A8F10108F5DC2E
:1021900005E016F8010B5A460B9990476D1CB9F1F2
:1021A0000001A9F10109F4DC641C65E709280100BC
:1021B0000A68531C0B60107070470000FEF776FD34
:1021C000FFF72EFDFFF7CAFBFFF714FC1348124977
:1021D0000C2201604FF4E131416000218160C16057
:1021E000C0E904128161C161FFF7F5FA0B480421CF
:1021F0004038FFF7F9F94FF40054094D4FF4FA76DF
:10220000FFF74EFCFEF7A4FA21462846FEF734FD00
:102210003046FEF743FCF3E700440040680000202E
:10222000000C024000000000000000000102030456
:102230000607080900000000010203045C220008F0
:1022400000000020280000003C2000088422000834
:1022500028000020E80400004C20000800000000D6
:10226000000000000000000000000000000000006E
:10227000000000000100000010000000000000004D
:042280000024F40042
:040000050800018965
:00000001FF
