:020000040800F2
:10000000F00400209D0100089B1B00083F1600081B
:10001000991B0008E50200083D22000800000000CE
:100020000000000000000000000000008D1C00081F
:10003000E7020008000000009D1B00089D1D00084D
:10004000B7010008B7010008B7010008B7010008B0
:10005000B7010008B7010008E9020008150300080D
:10006000B7010008B7010008B7010008B701000890
:10007000B7010008B7010008B7010008B701000880
:10008000B7010008B7010008B7010008B701000870
:10009000B7010008B7010008B7010008B701000860
:1000A000B7010008B7010008B7010008B701000850
:1000B000B70100083D1E0008B7010008B70100089D
:1000C000B7010008B7010008B7010008B701000830
:1000D000B7010008B7010008B7010008B701000820
:1000E000B7010008B7010008B7010008B701000810
:1000F000B7010008B7010008B7010008B701000800
:10010000B7010008B7010008B7010008B7010008EF
:10011000B7010008B7010008B7010008B7010008DF
:10012000B7010008B7010008B7010008B7010008CF
:10013000B7010008B7010008B7010008B7010008BF
:10014000B7010008B7010008B7010008B7010008AF
:10015000B7010008B7010008B7010008B70100089F
:10016000B7010008B7010008B7010008B70100088F
:10017000B7010008B7010008B7010008000000003F
:10018000B7010008B7010008DFF80CD000F098F8BC
:100190000048004709240008F00400200648804772
:1001A00006480047FEE7FEE7FEE7FEE7FEE7FEE75C
:1001B000FEE7FEE7FEE7FEE7211E000889010008D2
:1001C0002DE9F05F0546002092469B46884606468C
:1001D000814640241BE0284641464746224600F01F
:1001E0005EF853465A46C01A914110D3114618463C
:1001F000224600F045F82D1A67EB01084F462246CB
:100200000120002100F03CF817EB00094E41201EB0
:10021000A4F10104DFDC484631462A464346BDE8E6
:10022000F09FD2B201E000F8012B491EFBD27047CB
:100230000022F6E710B513460A4604461946FFF7B2
:10024000F0FF204610BD421C10F8011B0029FBD115
:10025000801A704730B50B46014600202022012449
:1002600009E021FA02F59D4205D303FA02F5491B84
:1002700004FA02F52844151EA2F10102F1DC30BD9A
:10028000202A04DB203A00FA02F100207047914056
:10029000C2F1200320FA03F3194390407047202A4B
:1002A00004DB203A21FA02F00021704721FA02F320
:1002B000D040C2F120029140084319467047000027
:1002C000064C074D06E0E06840F0010394E80700A3
:1002D00098471034AC42F6D3FFF75AFFA424000825
:1002E000C4240008FEE7704710B5432001F058FC15
:1002F000074C01229103204600F020F90022A114AE
:10030000204600F01BF9BDE81040012000F02EB897
:10031000000C024010B5212001F042FC084C0122E3
:100320001103204600F00AF900224FF480412046D4
:1003300000F004F9BDE81040022000F017B80000FA
:10034000000C024070B5044600F0FEF80546601C43
:1003500002D004480078044400F0F6F8401BA042A4
:10036000FAD370BD0C00002070470000044910B59E
:100370000A68024202D00860FFF7F6FF10BD0000D5
:10038000143C01402DE9F84F00224FF001080325ED
:100390004FF00F0E0B6808FA02F42340A3426ED10F
:1003A0004E68012E05D0022E03D0112E01D0122E40
:1003B00012D186684FEA420C05FA0CF7BE43CF68AB
:1003C00007FA0CF7374387604668A6430C79C4F3F5
:1003D0000014944034434460C668570005FA07FC93
:1003E0008C6826EA0C06BC403443C4604C68022C7E
:1003F00001D0122C13D1D40800EB8404A346D4F806
:10040000209054074FEAD46A0EFA0AF629EA060940
:100410000E6906FA0AF646EA0906CBF82060066875
:100420000C7926EA0C0604F00304BC403443046053
:100430004C68E40065D5364C266846F48046266054
:10044000246822F0030604F480440094314C3444C0
:10045000A446D4F808489607370F0EFA07F6B443B7
:100460002D4EB04201D1002624E02C4EB04201D1E5
:1004700001261FE02A4EB04202D102261AE040E0D7
:10048000284EB04201D1032614E0274EB04201D1DC
:1004900004260FE0254EB04201D105260AE0244E85
:1004A000B04201D1062605E0224EB04201D1072616
:1004B00000E00826BE402643CCF808681E4E34688B
:1004C0004F689C43FF0300D51C4334601A4C241D25
:1004D00026684F689E43BF0300D51E432660164E14
:1004E000083634684F689C43FF0200D51C433460D3
:1004F000114E0C3634684F689C43BF0200D51C4334
:100500003460521C102AFFF445AFBDE8F88F00009C
:100510004438024000300140000002400004024024
:1005200000080240000C024000100240001402408B
:1005300000180240001C0240003C01400AB18161E9
:1005400070470904FBE7000001488068704700001D
:100550000C00002070B5040025D094F83D00002563
:1005600020B984F83C50204600F03EFA242084F85C
:100570003D002068016821F00101016020680168E8
:1005800041F4004101602068016821F400410160EC
:1005900000F092FB4D4A6168914201D84C4900E05D
:1005A0004C49884201D2012070BD4B492368B0FB01
:1005B000F1F15E6826F03F060E435E606368934289
:1005C00006D94FF4967359434FF47A73B1FBF3F1A4
:1005D0002368491C1E6A26F03F0631431962616890
:1005E000914210D84900401EB0FBF1F2521CC2F3F8
:1005F0000B02042A01D2042022E0B0FBF1F0401CDF
:10060000C0F30B001CE0A268F2B301EBC10303EBE3
:100610000116431EB3FBF6F35B1C43F480431B053A
:1006200049D092B301EBC10202EB0111401EB0FBB5
:10063000F1F0401CC0F30B0040F4804040F4004057
:100640002168CA694CF6FF739A431043C861D4E924
:10065000071001432068026822F0C00211430160C4
:10066000D4E9030101432068826848F2FF339A43CA
:1006700011438160D4E9050108432168CA6822F06A
:10068000FF021043C86001E00EE016E02068016838
:1006900041F0010101602564202084F83D002563BC
:1006A00084F83E50002070BD01EB4106431EB3FBB1
:1006B000F6F35B1CB3E70120C2E701EB4101401EEA
:1006C000B0FBF1F0401CC0F30B00B7E7A0860100BF
:1006D00080841E0000093D0040420F002DE9F84FC4
:1006E0001F4690468A460446DDF82890FFF72CFF07
:1006F000054694F83D00202875D1192301226C4944
:100700002046009501F09EF80028F5D194F83C00B1
:10071000012868D0012084F83C0020680168C907DE
:1007200003D1016841F0010101602068016821F4F2
:1007300000610160222084F83D00102084F83E0012
:1007400000262664C4F824806785608D208559487A
:10075000E0622B464A465146204600F089FF0028B9
:1007600078D1208D544F68B1012814D00228206818
:10077000016816D041F48061016020684169806998
:10078000009087E02068416981690091016841F427
:10079000007101607EE02068016821F480610160E1
:1007A000F0E721F4806101602068016841F4006194
:1007B000E2E7032848D801280AD0022814D04B4683
:1007C000002239462046009501F03CF8D8BB27E0CE
:1007D0002A464946204601F0B4F8A0BB20680069CB
:1007E000616A08704DE061E04B46002239462046C0
:1007F000009501F027F830BB2068016841F40071D2
:10080000016020680069616A0870606A401C60626B
:10081000218D491E2185618D491E618521682EE04B
:100820002068016821F48061016020680069616AC4
:100830000870606A401C6062208D401E2085608DBB
:10084000401E6085D0E705E02A464946204601F073
:1008500078F810B10120BDE8F88F20680069616A5E
:100860000870606A401C6062218D491E2185618D7F
:10087000491E618521684A69D24352070AD4096931
:100880000170606A401C6062208D401E2085608D72
:10089000401E6085208D00288BD1202084F83D00EB
:1008A00084F83E6084F83C600020D4E70220D2E760
:1008B000020010000000FFFF040001002DE9F84FC6
:1008C0001F4690468A460446DDF82890FFF73CFE16
:1008D000054694F83D0020287FD119230122404984
:1008E0002046009500F0AEFF002876D194F83C0039
:1008F000012872D0012084F83C0020680168C907F3
:1009000003D1016841F0010101602068016821F410
:1009100000610160212084F83D00102084F83E0031
:1009200000262664C4F824806785608D20852D48C4
:10093000E0622B464A465146204600F00FFF90B930
:10094000206841698069009036E02A464946204681
:1009500001F02AF850B1206C042804D12068016805
:1009600041F4007101600120BDE8F88F606A2168E0
:1009700000780861606A401C6062618D491E618573
:10098000218D491E89B2218522685369DB435B07AB
:100990000BD451B100781061606A401C6062608DB8
:1009A000401E6085208D401E20852A4649462046EF
:1009B00000F022FF0028CED1208D0028C5D154F8A8
:1009C0003D0B016841F400710160202004F81E090C
:1009D000E67766770020C7E7FFE70220C4E700005C
:1009E000020010000000FFFF10B586B0044614217D
:1009F0006846FFF71DFC13492068884220D1124841
:100A0000016841F0020101600068694600F00200DF
:100A10000590C02000901220019001200290032038
:100A20000390042004900948FFF7ACFC06481030FE
:100A3000016841F400110160006800F400100590A5
:100A400006B010BD0054004030380240000402409F
:100A50000248816802781144816070470C000020D0
:100A60000B4810B5016841F400710160016841F460
:100A700080610160016841F480710160032000F031
:100A80006FF8002000F006F800F024F8002010BDF8
:100A9000003C024070B50D4D04464FF47A71287841
:100AA000B1FBF0F00A490968B1FBF0F000F002FB7D
:100AB00048B9102C07D200222146501E00F030F811
:100AC00000206C6070BD012070BD00000C00002093
:100AD000180000200A4808B5016841F4804101600F
:100AE000006800F4804000900548001F016841F054
:100AF00080510160006800F08050009008BD000047
:100B000044380240002809DB00F01F020121914017
:100B10004009800000F1E020C0F80011704700009B
:100B2000F0B40E4B1B680C46C3F30223C3F1070558
:100B3000042D00D90425191D072901D2002300E046
:100B4000DB1E012606FA05F1491E214099409E4010
:100B5000761E16403143F0BC01F086BB0CED00E080
:100B6000064900F0070208684FF6FF03184040EA04
:100B70000220034A10430860704700000CED00E0BB
:100B80000000FA052DE9F0470E46050065D0DFF8B4
:100B90001481D8F80000F7B200F00F00B04207D27D
:100BA00088F80070D8F8000000F00F00B04254D16F
:100BB00028683D4C810712D5400703D5206840F4D2
:100BC000E05020602878000703D5206840F460409A
:100BD00020602068A96820F0F00008432060287891
:100BE000C0072DD0304968680839012812D0022882
:100BF00013D0032811D00968890700292DDA21684C
:100C000021F0030101432160FFF79EFC814641F280
:100C1000883A0EE009688903EFE709688901ECE783
:100C2000FFF792FCA0EB0901514502D90320BDE872
:100C3000F0872068696800F00C00B0EB810FEFD1FD
:100C4000D8F80010404601F00F01B14207D90770F3
:100C5000006800F00F00B04201D00120E7E72878DB
:100C6000400705D52068E96820F4E050084320607B
:100C70002878000706D52068296920F4604040EAFA
:100C8000C100206000F038F82168084AC1F3031160
:100C9000515CC8400649086006480068FFF7FAFE44
:100CA0000020C4E7003C0240083802408C240008C1
:100CB0001800002010000020044805490068096859
:100CC000044AC1F38221515CC840704718000020DB
:100CD000083802409C240008044805490068096857
:100CE000044AC1F34231515CC840704718000020EB
:100CF000083802409C240008154810B5006810F020
:100D00000C02144813D04110042A0FD0082A0ED127
:100D10000F4C241F2268236802F03F025B0207D5B4
:100D20002068C0F38810A0FB010106E0084610BD52
:100D30002168C1F38811A1FB00010023FFF740FAED
:100D40002168C1F30141491C4900B0FBF1F010BD1D
:100D5000083802400024F4002DE9F84F040076D052
:100D60002078DFF838A3CE4DC00749D0DAF800105C
:100D70005046C1F38101012908D00068C0F3810009
:100D800002280AD1281D0068400206D52868800381
:100D900036D560680028E2D032E06068B0F5803F68
:100DA00010D0B0F5A02F286810D020F48030286033
:100DB000286820F4802028606068A0B1FFF7C4FB99
:100DC00006460CE0286840F48030F4E740F48020C8
:100DD0002860F7E7FFF7B8FB801B642873D8286802
:100DE0008003F7D50CE0FFF7AFFB064605E000BF38
:100DF000FFF7AAFB801B6428F0D828688003F7D48B
:100E00002078DFF8A08280074FF000093ED5DAF89D
:100E10000010504611F00C0F09D00068C0F381009B
:100E200002280BD19D48001F0068400206D42868A4
:100E3000800715D5E068012809D111E0E068B8B154
:100E40000120C8F80000FFF77FFB064605E020E11F
:100E5000FFF77AFB801B0228C0D828688007F7D5E7
:100E60002868216920F0F80040EAC10028600DE000
:100E7000C8F80090FFF768FB064604E0FFF764FB44
:100E8000801B02281FD828688007F7D42078000725
:100E900022D5824E844861696C3671B101210160AE
:100EA000FFF752FB074604E0FFF74EFBC01B02288A
:100EB00009D830688007F7D50EE0C0F80090FFF73A
:100EC00043FB074605E082E0FFF73EFBC01B02281C
:100ED0007DD830688007F7D42078400768D5DFF8E0
:100EE000BCB100270BF1380BDBF80000C0000BD4BD
:100EF000DBF8001041F08051CBF80010DBF8000067
:100F0000012700F080500090684E3068C00510D472
:100F1000306840F480703060FFF716FB009005E009
:100F2000FFF712FB0099401A022850D83068C0051C
:100F3000F6D55A4EA068683601280FD005283068CB
:100F400010D020F001003060306820F004003060E4
:100F5000A068B8B1FFF7F8FA00900FE0306840F0F1
:100F60000100F4E740F004003060F7E7FFF7ECFA27
:100F70000099411A41F28830814266D83068800772
:100F8000F4D50EE0FFF7E0FA009007E0FFF7DCFA97
:100F90000099411A41F28830814256D83068800762
:100FA000F4D42FB1DBF8001021F08051CBF8001001
:100FB000A069D0B3DAF800205146C2F38102022AB8
:100FC0004AD00228484607D0C8F8600000E03CE05C
:100FD000FFF7BAFA04463BE04746C8F86000FFF75F
:100FE000B3FA064605E000BFFFF7AEFA801B022801
:100FF0002BD828688001F7D4D4E907010843A16AF7
:101000002B4A490802EB0141626A41EA8211084316
:1010100094F82C1040EA01612048001F0160012073
:101020003866FFF791FA044605E034E0FFF78CFAE2
:10103000001B022809D828688001F7D52BE000BFE3
:10104000FFF782FA001B022802D90320BDE8F88FBF
:1010500028688001F4D41EE00128F7D00868E2690E
:1010600000F48001914214D1226A00F03F019142C4
:101070000FD147F6C071626A0140914209D1A26A5C
:1010800000F44031914204D1E16A00F0706088427E
:1010900001D00120DAE70020D8E70000083802403C
:1010A0000038024000004742800E47420070004076
:1010B0000000FFFF10B5401EB0F1807F01D301207A
:1010C00010BD4FF0E02460610F21601701F0CCF8F3
:1010D0000020A06107202061002010BD70477047EC
:1010E00070B590F83C20012A32D0012480F83C40B1
:1010F000022280F83D2003685A689D6822F070063D
:101100000A6832435A60134B02689A4214D0B2F113
:10111000804F11D0104B9A420ED0104B9A420BD0F8
:101120000F4B9A4208D00F4B9A4205D00E4B9A4271
:1011300002D00E4B9A4204D1496825F0800319432E
:10114000916080F83D40002180F83C10084670BD59
:10115000022070BD00000140000400400008004073
:10116000000C004000040140004001400018004015
:10117000704770B50446006801694FF00005C94327
:10118000890715D4C168C943890711D4E91E0161D3
:1011900001202077206880698007204602D0FFF771
:1011A000E7FF04E000F0C0F8204600F05FF9257783
:1011B00020680169C943490717D4C168C943490771
:1011C00013D46FF004010161022020772068806948
:1011D00010F4407F204602D0FFF7CAFF04E000F081
:1011E000A3F8204600F042F9257720680169C94339
:1011F000090716D4C168C943090712D46FF0080162
:101200000161042020772068C0698007204602D051
:10121000FFF7AEFF04E000F087F8204600F026F963
:10122000257720680169C943C90617D4C168C94335
:10123000C90613D46FF010010161082020772068DF
:10124000C06910F4407F204602D0FFF791FF04E010
:1012500000F06AF8204600F009F925772068016956
:10126000C943C90708D1C168C943C90704D1891E48
:101270000161204600F01EF920680169C943090692
:1012800009D4C168C943090605D46FF08001016122
:101290002046FFF723FF20680169C943490609D4A6
:1012A000C168C943490605D46FF040010161204679
:1012B00000F001F920680169C94389060BD4C168AF
:1012C000C943890607D46FF0200101612046BDE8BB
:1012D0007040FFF704BF70BD10B586B004461421FE
:1012E0006846FEF7A5FF0D492068884214D10C48D6
:1012F0000021026842F001020260006800F0010073
:101300000590402000900220CDE90101CDE90310B5
:1013100069460448FFF736F806B010BD00040040E7
:101320003038024000000240704770B5044690F823
:101330003C000D4601280DD0012684F83C600220B7
:1013400084F83D0042B1042A18D0082A2AD00C2A79
:101350004DD139E0022070BD206800F0E7FD206823
:10136000816941F0080181612068816921F00401EF
:101370008161206881692A69114311E0206800F0C9
:1013800005FE2068816941F40061816120688169FE
:1013900021F480618161206881692A6941EA022122
:1013A000816124E0206800F027FE2068C16941F0D7
:1013B0000801C1612068C16921F00401C161206890
:1013C000C1692A69114311E0206800F049FE2068D4
:1013D000C16941F40061C1612068C16921F4806183
:1013E000C1612068C1692A6941EA0221C16184F8AA
:1013F0003D60002084F83C0070BD10B5040003D0AF
:1014000094F83D0010B107E0012010BD002084F8E1
:101410003C00204600F00CF8022084F83D00211D1D
:10142000206800F011FD012084F83D00002010BD6F
:1014300008B500680B49884212D10B48016841F099
:10144000020101600068002200F0020000901146D5
:101450001D20FFF765FBBDE808401D20FFF752BBCC
:1014600008BD000000040040403802407047000002
:1014700010B504460068012200F04AFD0B492068BF
:10148000884202D00A49884203D1416C41F40041AC
:1014900041642068816801F00701062903D00168D2
:1014A00041F001010160002010BD0000000001407A
:1014B000000401407047704770B5040004D094F8F0
:1014C0003900002510B106E0012070BD84F83850C5
:1014D000204600F023F8242084F839002068C168F1
:1014E00021F40051C160204600F0E2FD206801694E
:1014F00021F4904101612068416921F02A01416194
:101500002068C16841F40051C160E563202084F87F
:10151000390084F83A00002070BD000010B586B094
:10152000044614216846FEF783FE1349206888426A
:1015300020D11248016841F400310160006800F4D4
:10154000003005900D481038016841F0010101603C
:101550000068694600F0010005900C200090022010
:10156000019001200290032003900720049004487A
:10157000FEF708FF06B010BD0044004040380240AE
:10158000000002402DE9F843044690F839001F4658
:1015900016460D46202850D1B5B1AEB194F83800AA
:1015A00001284AD0012084F838004FF00008C4F820
:1015B0003C80212084F83900FEF7C6FFA6848146CE
:1015C000E68484F8388026E00120BDE8F883E08CCA
:1015D000401EE084A0684B46B0F5805F4FF00002EB
:1015E0004FF080012046009703D000F0F5FDE8B9E8
:1015F0000DE000F0F1FDC8B928882168C0F30800AB
:101600004860206908B16D1C05E0AD1C03E021684D
:1016100015F8010B4860E08C0028D8D14B46002219
:1016200040212046009700F0D7FD08B10320CCE709
:10163000202084F839000020C7E70220C5E7FEE734
:1016400001684A69D24352050FD46FF480624A613F
:10165000002140F8301F202242738173026942F05A
:1016600004020261017301207047002070470000EE
:101670002DE9F84F0446C06A1E4693460D46216880
:101680000A6842F480620A60082807D0012805D061
:1016900010F5803F02D0206B112804D1206801682A
:1016A00041F4807101604FF001195B460022494608
:1016B0002046009600F0C6F84FF4007840B120684C
:1016C0000068C00501D5C4F840800320BDE8F88F4C
:1016D0002069DFF884A0B0F5804F0FD00620216884
:1016E00000EAD51747F0F000086133465A460AF180
:1016F0000601204600F0DAF858BB03E0E8B240F0FB
:1017000001001CE02168E8B2086133465A465146A0
:10171000204600F0CBF8E0B920684169816900916A
:10172000016841F4807101605B4600224946204611
:10173000009600F087F80028C1D147F0F100216839
:10174000086133465A465146204600F0AFF800285B
:10175000BCD00120BAE7000002000100F8B5044641
:10176000C06A1E460D461746082807D0012805D036
:1017700010F5803F02D0206B122804D12068016848
:1017800041F480710160134600224FF001112046A0
:10179000009600F057F840B120680068C00502D5F7
:1017A0004FF4007020640320F8BD2069B0F5804F2D
:1017B0000ED00620216800EAD51040F0F000086144
:1017C00033463A460B49204600F070F878B902E0FB
:1017D00005F0FE0000E0E8B22168086105493346E3
:1017E0003A46891F204600F061F80028DCD001202D
:1017F000F8BD00000800010070B516460D4604460D
:101800000DE02046FFF71CFF08B1012070BD681CE9
:1018100005D0FEF799FE801BA84207D835B1206895
:101820004069C0434007ECD4002070BD002044F85C
:10183000300F20216173A073216941F020012161E3
:101840002073E2E72DE9F0471E4690460D46044618
:10185000C1F30747DDF8209008E0701C06D0FEF7C2
:1018600073FEA0EB0900B0420FD876B12068012FBB
:1018700018D0806925EA00000004000C14D0002173
:101880004145EAD00020BDE8F087002044F8300F41
:1018900020216173A073216941F02001216120732F
:1018A0000120F0E74069E5E70121E9E72DE9F0478C
:1018B0009A4691460E46044600254FF02008C1F393
:1018C000074725E020684069C043400514D42068DC
:1018D000016841F40071016021686FF48060486123
:1018E000256384F83D8084F83E50206C40F004006D
:1018F000206484F83C501FE0B9F1FF3F08D0FEF7A8
:1019000023FEA0EB0A0149450CD8B9F1000F09D01C
:101910002068012F13D0806926EA00000004000C23
:101920000BD0CFE744F8305F84F80D80A5732069B1
:1019300040F02000206125730120BDE8F087406958
:10194000EAE72DE9F041002590460E46044620279F
:1019500017E04069C043C0060CD454F8301B6FF048
:101960001000486144F810596777A577206A206213
:10197000257717E0FEF7E8FDA0EB0800B04208D895
:101980003EB120684169C9434906E2D40020BDE860
:10199000F08144F8305F6773A573206940F0200040
:1019A000206125730120F2E770B516460D46044606
:1019B0000DE02046FFF744FE08B1012070BD681C11
:1019C00005D0FEF7C1FD801BA84207D835B12068BD
:1019D0004069C0430006ECD4002070BD002044F8EC
:1019E000300F20216173A073216941F02001216132
:1019F0002073E2E77FB512A064240068114DCDE9A1
:101A000000402889022381B201AA0F48FEF756FF41
:101A10000EA00223006800940290288902AA81B2D5
:101A20000948FEF74BFF0AA00223006800940390C8
:101A3000288903AA81B20448FEF740FF7FBD000059
:101A400081000000000000201C0000208F0000002A
:101A5000800300002DE9F04186B014216846FEF7AE
:101A6000E7FB30480024016841F001010160016892
:101A700001F001010591016841F008010160016870
:101A800001F008010591016841F00201016001685F
:101A900001F002010591016841F010010160006848
:101AA000214F00F010004FF47045059000222946A8
:101AB0003846FEF743FDDFF874804FF4407600228D
:101AC00031464046FEF73AFD00950125CDE9015427
:101AD000694638460394FEF755FC0096CDE901545B
:101AE000694640460394FEF74DFC032000901048E1
:101AF000CDE9010569460F48FEF744FC0022114676
:101B00000620FFF70DF80620FEF7FCFF0022114625
:101B10000720FFF705F80720FEF7F4FF06B0BDE841
:101B2000F081000030380240000C0240000002400A
:101B3000000021100010024010B58AB00024079464
:101B40001C2168460894FEF773FB12481049016097
:101B500040F29F51C0E9011440F2E731C0E903149B
:101B60008461FFF74AFC079407A90A480894FFF725
:101B7000B7FA6020CDE900040294002269460548C6
:101B80000494FFF7D2FB0348FFF7A6FB0AB010BD91
:101B90000004004070000020FEE77047704700001E
:101BA00001490968486370477000002070B531A092
:101BB0008AB000686425304C009505902089012387
:101BC00081B205AA2D48FEF779FE0026CDE9005620
:101BD0002089022381B201AA2848FEF77FFDBDF8C3
:101BE0000400208026A0012300680095069020892B
:101BF00006AA81B22148FEF761FE0296009520896F
:101C0000022381B202AA1D48FEF768FDBDF8080054
:101C100060801CA00123006800950790208907AA16
:101C200081B21648FEF74AFE0396009520890223EA
:101C300081B203AA1148FEF751FDBDF80C00A08047
:101C400011A00123006800950890208908AA81B29C
:101C50000A48FEF733FE049600952089022381B2DC
:101C600004AA0648FEF73AFDBDF81000E0800AB06D
:101C700070BD000094000000000000201C00002047
:101C800096000000980000009A00000070470000D5
:101C900010B5304C9AB030A12288684600F0D0FAD6
:101CA0006846FEF7D0FA82B2642369462D48FFF7F2
:101CB00069FC62882CA1684600F0C2FA6846FEF70B
:101CC000C2FA82B2642369462648FFF75BFCA28809
:101CD00028A1684600F0B4FA6846FEF7B4FA82B26A
:101CE000642369461F48FFF74DFCE28824A168463B
:101CF00000F0A6FA6846FEF7A6FA82B264236946A7
:101D00001848FFF73FFC6088A188000400EB012021
:101D1000E18842181DA1684600F092FA6846FEF775
:101D200092FA82B2642369460E48FFF72BFC4FF407
:101D3000FA60FEF707FB18A1684600F081FA6846D2
:101D4000FEF781FA82B2642369460648FFF71AFC5F
:101D50001AB010BD00000020433A20256420202046
:101D600000000000B0000020523A2025642020200E
:101D700000000000473A20256420202000000000D9
:101D8000423A20256420202000000000543A2025FB
:101D900064202020000000000D0A0000FEF758BE5D
:101DA00030B593B030216846FEF742FA14210CA8F2
:101DB000FEF73EFA18480025016841F080510160A5
:101DC000006800F0805011901448016841F480418F
:101DD00001600068022400F480401190012003900B
:101DE00010200490009406940820CDE90750482064
:101DF000CDE9090407200B906846FEF7ADFF0CA95A
:101E00000F2081E83100E002CDE90F0502210CA886
:101E1000FEF7B8FE13B030BD4038024000700040FD
:101E20000548016841F47001016003494FF000600A
:101E3000803908607047000088ED00E00148FFF736
:101E400098B9000070000020F0B50268254C264DBE
:101E5000264E274F274B4FF0804CA04209D06045BB
:101E600007D0A84205D0B04203D0B84201D0984272
:101E700004D122F0700E4A6842EA0E02A0421BD042
:101E8000604519D0A84217D0B04215D0B84213D03F
:101E9000984211D0184DA8420ED0184DA8420BD030
:101EA000174DA84208D0174DA84205D0164DA8429C
:101EB00002D0164DA84203D122F44075CA682A43C5
:101EC0004D6922F080022A4302608A68C2620A6871
:101ED0008262A04201D0984201D1096901630121C7
:101EE0004161F0BD000001400004004000080040D6
:101EF000000C00400004014000400140004401404B
:101F00000048014000180040001C00400020004034
:101F100010B501F01F030121046A99408C4304624B
:101F2000016A9A401143016210BD0000F0B5026AD7
:101F300022F001020262036A42688469124E24F0B0
:101F400073050C682C4323F002058B682B430D4D61
:101F5000A84201D0B04205D123F00807CB683B432B
:101F600023F00403A84201D0B04205D14D6922F408
:101F7000407215438A692A4342608461496841631B
:101F80000362F0BD0000014000040140F0B5026AA8
:101F900022F010020262026A436884690D6824F428
:101FA000E64444EA05248D6822F0200242EA051244
:101FB0000F4D104EA84201D0B04206D1CF6822F09A
:101FC000800242EA071222F04002A84201D0B04249
:101FD00007D14D6923F4406343EA85038D6943EAE1
:101FE000850343608461496881630262F0BD00003B
:101FF0000000014000040140F0B5026A22F4807242
:102000000262026A4368C46922F4007224F0730514
:102010000C68124E2C438D6842EA05220E4DA842F0
:1020200001D0B04206D1CF6822F4006242EA072212
:1020300022F48062A84201D0B04207D14D6923F456
:10204000405343EA05138D6943EA05134360C461B5
:102050004968C1630262F0BD000001400004014014
:1020600030B5026A22F480520262046A4268C3698F
:102070000D6823F4E64343EA05238D6824F40054F5
:1020800044EA0534084DA84202D0084DA84204D1C4
:102090004D6922F4804242EA85124260C361496878
:1020A0000164046230BD00000000014000040140F2
:1020B0002DE9F041044600680169E26821F44051CD
:1020C000114301612169A068E26908436169114314
:1020D00008432168CA6849F20C639A430243CA6004
:1020E00020684169A26921F4407111434161E069AE
:1020F000192764253226B0F5004F354A3549206846
:102100004FF0000806D0884201D0904236D1FEF749
:10211000E3FD35E0884201D0904202D1FEF7DCFDBC
:1021200001E0FEF7C9FD61684A18A0FB070148EB12
:102130000803FEF745F80146B0FBF5F00201B1FBDC
:10214000F5F06FF01803584301EB800006EBC00078
:10215000B0FBF5F000F0F80002EB4002B1FBF5F047
:10216000584301EB800006EBC000B0FBF5F000F037
:102170000700216810448860BDE8F081FEF79CFDEF
:1021800061688B0F8A00A0FB0701FEF719F8014672
:10219000B0FBF5F06FF01802504301EB800006EB46
:1021A0000010B0FBF5F000F0F002B1FBF5F002EB2F
:1021B0000012B1FBF5F06FF01803584301EB8000FB
:1021C00006EB0010B0FBF5F000F00F00D1E70000C7
:1021D00000140140001001402DE9F04198461746D7
:1021E0000E460446069D1DE0681C1BD02DB1FEF76F
:1021F000ABF9A0EB0800A84214D92068C16821F40B
:10220000D071C1602068416921F001014161202045
:1022100084F8390084F83A00002084F8380003205C
:10222000BDE8F0812068006836EA000004D0002094
:10223000B842D9D00020F3E70120F9E7FEE700001B
:102240000FB4084B10B504A902AA039800F02CF8AB
:10225000044602A9002000F0D1F8204610BC5DF829
:1022600014FB0000FD2300080907090E002804DB09
:1022700000F1E02080F80014704700F00F0000F13A
:10228000E02080F8141D704702E008C8121F08C142
:10229000002AFAD170477047002001E001C1121FE7
:1022A000002AFBD1704700002DE9FF4F89B09B4603
:1022B0000446002506E025280BD05A460B99904786
:1022C000641C6D1C20780028F5D10DB02846BDE8AF
:1022D000F08F0027B8460122474900E0074314F871
:1022E000013F203B02FA03F00842F7D120782E2864
:1022F00019D114F8010F47F004072A280ED06FF007
:102300002F022078A0F1300109290CD808EB8801B0
:1023100002EB410100EB0108641CF2E70A98641C1F
:1023200050F8048B0A9020780028CED0642808D07A
:10233000692806D075281ED05A460B9990476D1C07
:1023400058E00A994FF00A0901C90A91002802DAF7
:1023500040422D2102E0390504D52B218DF82010B3
:10236000012103E0F90704D02021F7E78A4608AEEF
:102370000DE00021FAE70A994FF00A0901C90A9114
:10238000F7E74946FDF766FF303106F8011D0028E2
:10239000F7D1ADEB060000F12009780701D44FF02A
:1023A0000108C84502DDA8EB090000E000208046D6
:1023B000002706E008A85A46C05D0B9990476D1C9F
:1023C0007F1C5745F6DB04E030205A460B999047B6
:1023D0006D1CB8F10001A8F10108F5DC05E016F864
:1023E000010B5A460B9990476D1CB9F10001A9F1F8
:1023F0000109F4DC641C65E7092801000A68531C24
:102400000B60107070470000FEF72AFBFFF7C8FC56
:10241000FFF720FB1A481949002401604FF4E1310D
:10242000C0E901140C21C460C0E904418461C461A5
:10243000FFF742F8FFF780FB11481249943801601A
:102440001149C0E901144FF48041C0E903414461DE
:102450008461C4610462FEF77DF82120FFF7A0FBD0
:10246000FFF7C8FA064800214038FFF701F800BF1F
:10247000FFF79CFBFFF70CFCFAE70000004400406C
:10248000B000002000540040A086010000000000C1
:102490000000000001020304060708090000000014
:1024A00001020304C4240008000000201C000000F6
:1024B00088220008E02400081C000020D40400004A
:1024C00098220008000000000000000052000000F8
:1024D0000100000010000000000000000024F400D3
:040000050800018965
:00000001FF
